:020000040800F2
:1000000000000220190D0008610D0008610D0008B4
:10001000610D0008610D0008610D0008000000007E
:10002000000000000000000000000000610D00085A
:10003000610D000800000000610D0008610D00085E
:10004000610D0008610D0008610D0008610D0008D8
:10005000610D0008610D0008610D0008610D0008C8
:10006000610D0008610D0008610D0008610D0008B8
:10007000610D0008610D0008610D0008610D0008A8
:10008000610D0008610D0008610D0008610D000898
:10009000610D0008610D0008610D0008610D000888
:1000A000610D0008610D0008610D0008610D000878
:1000B000610D0008610D0008610D0008610D000868
:1000C000610D0008610D0008610D0008610D000858
:1000D000610D0008610D0008610D0008610D000848
:1000E000610D0008610D0008610D0008610D000838
:1000F000610D0008610D0008610D0008610D000828
:10010000610D0008610D0008610D0008610D000817
:10011000610D0008610D0008610D0008610D000807
:10012000610D0008610D0008610D0008610D0008F7
:10013000610D0008610D0008610D0008610D0008E7
:10014000610D0008610D0008610D0008610D0008D7
:10015000610D0008610D0008610D0008610D0008C7
:10016000610D0008610D0008610D0008610D0008B7
:10017000610D0008610D0008610D0008610D0008A7
:08018000610D0008610D00088B
:1001880008B50548054B1B1A062B00D808BD044BBB
:10019800002BFBD09847F9E7480400204B040020C7
:1001A8000000000008B50748074B1B1A9B1003EB1B
:1001B800D373591000D108BD044A002AFBD09047D8
:1001C800F9E700BF480400204804002000000000B0
:1001D80010B5064C237843B9FFF7D2FF044B13B18F
:1001E8000448AFF300800123237010BD48040020A9
:1001F800000000005810000808B5074B1BB107485D
:100208000749AFF300800748036813B1064B03B1F1
:100218009847BDE80840C5E70000000058100008EE
:100228004C0400204404002000000000134B002B65
:1002380008BF114B9D46A3F5803A00218B460F4617
:100248001148124A121A00F0DFFD0D4B002B00D0A6
:1002580098470C4B002B00D0984700200021040041
:100268000D000B4800F07AFD00F0A6FD20002900E3
:1002780000F026FD00F078FD0000080000000000F6
:1002880000000000000000004804002000060020D4
:10029800910D00080F4B4FF080521A605A690028E0
:1002A80082F4804282B05A6141F253710ADD0191B1
:1002B80000E000BF019B5A1E002B0192F9DC0138B7
:1002C8000028F4DC034B5A6982F480425A6102B078
:1002D800704700BF000C024000B585B0009800F0E0
:1002E8003FFA0022054B00F0DBFB0022044B00F034
:1002F800ADFA00F0BDFC05B05DF804FB00004E400F
:1003080000408F40074A08494FF0FF3313600A78CE
:1003180002FB03F2013B13F1650F40F8042FF6D1FD
:10032800704700BFFC0500200100208070B46325E1
:1003380001231E46024609E052F8041F5468A142F0
:1003480002DD146051600026642B03D0AB4203F138
:100358000103F1DD0EB9013DEAD170BC704700BF61
:10036800394A3A4BD2F88810394841F47001C2F83A
:1003780088101968002241F0010119609A60196813
:1003880021F0847121F4803119605860196882B0B5
:1003980021F480211960DA60009201921A6842F40F
:1003A80080321A601A4603E0009BB3F5A06F09D0AB
:1003B800136803F400330193009B01330093019BFE
:1003C800002BF1D0214B1B6813F4003318BF012315
:1003D8000193019B012B05D01B4B4FF000629A60E3
:1003E80002B07047194B1B4A186C1B4940F08050EB
:1003F8001864106840F4804010609A689A609A689F
:1004080042F400429A609A6842F4A0529A60596095
:100418001A6842F080721A6019460B680B4A9B01F1
:10042800FBD50E4B40F205611960936823F0030376
:100438009360936843F002039360936803F00C039E
:10044800082BFAD1C8E700BF00ED00E000380240F1
:10045800103000240070004019544007003C02404E
:10046800154B9A6802F00C02042A23D0082A09D0F6
:10047800124A1149124B8968C1F30311595CCA40E9
:100488001A617047586859685B6842024CBF0D4A48
:100498000A4A01F03F01C3F38813B2FBF1F202FBF1
:1004A80003F2054B5B68C3F3014301335B00B2FB06
:1004B800F3F2DEE7034ADCE7003802400024F400E8
:1004C8000400002040787D0188100008000000200A
:1004D80044040020480400200006002081F0004168
:1004E80002E000BF83F0004330B54FEA41044FEA11
:1004F800430594EA050F08BF90EA020F1FBF54EAAC
:10050800000C55EA020C7FEA645C7FEA655C00F047
:10051800E2804FEA5454D4EB5555B8BF6D420CDD18
:100528002C4480EA020281EA030382EA000083EA9B
:10053800010180EA020281EA0303362D88BF30BD3B
:1005480011F0004F4FEA01314FF4801C4CEA113191
:1005580002D0404261EB410113F0004F4FEA0333F0
:100568004CEA133302D0524263EB430394EA050F7B
:1005780000F0A780A4F10104D5F1200E0DDB02FAEA
:100588000EFC22FA05F2801841F1000103FA0EF27E
:10059800801843FA05F359410EE0A5F120050EF144
:1005A800200E012A03FA0EFC28BF4CF0020C43FA75
:1005B80005F3C01851EBE37101F0004507D54FF082
:1005C800000EDCF1000C7EEB00006EEB0101B1F5D2
:1005D800801F1BD3B1F5001F0CD349085FEA300018
:1005E8004FEA3C0C04F101044FEA445212F5800F23
:1005F80080F09A80BCF1004F08BF5FEA500C50F1C0
:10060800000041EB045141EA050130BD5FEA4C0CA2
:10061800404141EB010111F4801FA4F10104E9D12B
:1006280091F0000F04BF01460020B1FA81F308BF22
:100638002033A3F10B03B3F120020CDA0C3208DDEE
:1006480002F1140CC2F10C0201FA0CF021FA02F1C9
:100658000CE002F11402D8BFC2F1200C01FA02F139
:1006680020FA0CFCDCBF41EA0C019040E41AA2BF5E
:1006780001EB0451294330BD6FEA04041F3C1CDA26
:100688000C340EDC04F11404C4F1200220FA04F046
:1006980001FA02F340EA030021FA04F345EA0301F0
:1006A80030BDC4F10C04C4F1200220FA02F001FAB2
:1006B80004F340EA0300294630BD21FA04F0294634
:1006C80030BD94F0000F83F4801306BF81F48011CD
:1006D8000134013D4EE77FEA645C18BF7FEA655C40
:1006E80029D094EA050F08BF90EA020F05D054EA12
:1006F800000C04BF1946104630BD91EA030F1EBF17
:100708000021002030BD5FEA545C05D1400049411A
:1007180028BF41F0004130BD14F580043CBF01F50D
:10072800801130BD01F0004545F0FE4141F47001F3
:100738004FF0000030BD7FEA645C1ABF19461046CE
:100748007FEA655C1CBF0B46024650EA013406BFCF
:1007580052EA033591EA030F41F4002130BD00BF8E
:1007680090F0000F04BF0021704730B54FF480644B
:1007780004F132044FF000054FF0000150E700BFCC
:1007880090F0000F04BF0021704730B54FF480642B
:1007980004F1320410F0004548BF40424FF0000118
:1007A8003EE700BF42004FEAE2014FEA31014FEA5B
:1007B80002701FBF12F07F4393F07F4F81F06051AA
:1007C800704792F0000F14BF93F07F4F704730B519
:1007D8004FF4607401F0004521F0004120E700BFAC
:1007E80050EA010208BF704730B54FF000050AE033
:1007F80050EA010208BF704730B511F0004502D534
:10080800404261EB41014FF4806404F132045FEA35
:10081800915C3FF4DCAE4FF003025FEADC0C18BFDA
:1008280003325FEADC0C18BF033202EBDC02C2F1D0
:10083800200300FA03FC20FA02F001FA03FE40EA62
:100848000E0021FA02F11444C1E600BF70B54FF062
:10085800FF0C4CF4E06C1CEA11541DBF1CEA135544
:1008680094EA0C0F95EA0C0F00F0DEF82C4481EAAC
:10087800030621EA4C5123EA4C5350EA013518BFCC
:1008880052EA033541F4801143F4801338D0A0FBB9
:1008980002CE4FF00005E1FB02E506F00042E0FB66
:1008A80003E54FF00006E1FB03569CF0000F18BF6C
:1008B8004EF0010EA4F1FF04B6F5007F64F5407414
:1008C80004D25FEA4E0E6D4146EB060642EAC621A7
:1008D80041EA55514FEAC52040EA5E504FEACE2E14
:1008E800B4F1FD0C88BFBCF5E06F1ED8BEF1004F17
:1008F80008BF5FEA500E50F1000041EB045170BD93
:1009080006F0004646EA010140EA020081EA0301D6
:10091800B4EB5C04C2BFD4EB0C0541EA045170BDD2
:1009280041F480114FF0000E013C00F3AB8014F14C
:10093800360FDEBF002001F0004170BDC4F1000495
:10094800203C35DA0C341BDC04F11404C4F1200516
:1009580000FA05F320FA04F001FA05F240EA020071
:1009680001F0004221F0004110EBD37021FA04F6A7
:1009780042EB06015EEA430E08BF20EAD37070BD61
:10098800C4F10C04C4F1200500FA04F320FA05F0C0
:1009980001FA04F240EA020001F0004110EBD370C2
:1009A80041F100015EEA430E08BF20EAD37070BD32
:1009B800C4F1200500FA05F24EEA020E20FA04F30B
:1009C80001FA05F243EA020321FA04F001F00041BA
:1009D80021FA04F220EA020000EBD3705EEA430E2B
:1009E80008BF20EAD37070BD94F0000F0FD101F05A
:1009F8000046400041EB010111F4801F08BF013C93
:100A0800F7D041EA060195F0000F18BF704703F0D0
:100A18000046520043EB030313F4801F08BF013D57
:100A2800F7D043EA0603704794EA0C0F0CEA135513
:100A380018BF95EA0C0F0CD050EA410618BF52EACD
:100A48004306D1D181EA030101F000414FF00000D3
:100A580070BD50EA410606BF1046194652EA4306E1
:100A680019D094EA0C0F02D150EA013613D195EA55
:100A78000C0F05D152EA03361CBF104619460AD19D
:100A880081EA030101F0004141F0FE4141F47001A7
:100A98004FF0000070BD41F0FE4141F4780170BD97
:100AA80070B54FF0FF0C4CF4E06C1CEA11541DBFFC
:100AB8001CEA135594EA0C0F95EA0C0F00F0A7F8FE
:100AC800A4EB050481EA030E52EA03354FEA01312B
:100AD80000F088804FEA03334FF0805545EA13133E
:100AE80043EA12634FEA022245EA111545EA106506
:100AF8004FEA00260EF000419D4208BF964244F19D
:100B0800FD0404F5407402D25B084FEA3202B61ABB
:100B180065EB03055B084FEA32024FF480104FF48F
:100B2800002CB6EB020E75EB030E22BFB61A754603
:100B380040EA0C005B084FEA3202B6EB020E75EB96
:100B4800030E22BFB61A754640EA5C005B084FEAFE
:100B58003202B6EB020E75EB030E22BFB61A7546CB
:100B680040EA9C005B084FEA3202B6EB020E75EBD6
:100B7800030E22BFB61A754640EADC0055EA060E97
:100B880018D04FEA051545EA16754FEA06164FEADA
:100B9800C30343EA52734FEAC2025FEA1C1CC0D186
:100BA80011F4801F0BD141EA00014FF000004FF013
:100BB800004CB6E711F4801F04BF01430020B4F1D4
:100BC800FD0C88BFBCF5E06F3FF6AFAEB5EB030C8C
:100BD80004BFB6EB020C5FEA500C50F1000041EB89
:100BE800045170BD0EF0004E4EEA113114EB5C0456
:100BF800C2BFD4EB0C0541EA045170BD41F4801129
:100C08004FF0000E013C90E645EA060E8DE60CEA30
:100C1800135594EA0C0F08BF95EA0C0F3FF43BAF4D
:100C280094EA0C0F0AD150EA01347FF434AF95EA04
:100C38000C0F7FF425AF104619462CE795EA0C0FE8
:100C480006D152EA03353FF4FDAE1046194622E7B5
:100C580050EA410618BF52EA43067FF4C5AE50EA8F
:100C680041047FF40DAF52EA43057FF4EBAE12E77F
:100C78004FEA410212F5001215D211D56FF47873BC
:100C8800B3EB625212D94FEAC12343F0004343EA5F
:100C9800505311F0004F23FA02F018BF404270473A
:100CA8004FF00000704750EA013005D111F00040C4
:100CB80008BF6FF0004070474FF00000704700BF5A
:100CC80008B50F4B0F4D1A6B0F4C42F008021A6310
:100CD8006420FFF7DFFA4FF0FF330C4A2B602178CE
:100CE80001FB03F1013B13F1650F42F8041FF6D134
:100CF8000648FFF71BFB4FF47A70FFF7CBFAEAE7D9
:100D080000380240FC050020010020806804002013
:100D1800002103E00B4B5B58435004310A480B4B4E
:100D280042189A42F6D30A4A02E0002342F8043BEA
:100D3800084B9A42F9D3FFF713FB00F03DF8FFF791
:100D4800BFFF7047881000080000002044040020FE
:100D58004804002000060020FEE7000001460020AD
:100D68000246034600F09AB808B50021044600F090
:100D7800F3F8044B1868C36B03B19847204600F09A
:100D880075F900BF5410000838B5094D094C641BAB
:100D9800A41018BF05EB840505D0013C55F8043DA7
:100DA8009847002CF9D1BDE8384000F059B900BF88
:100DB800841000088810000870B50F4E0F4D761B80
:100DC800B61007D0043D0024013455F8043F984775
:100DD800A642F9D10A4E0B4D761B00F03BF9B6102E
:100DE80008D0043D0024013455F8043F9847A64232
:100DF800F9D170BD70BD00BF7C1000087C100008E0
:100E0800841000087C100008F0B4840743D0541EF6
:100E1800002A3ED0CDB2034603E0621E002C38D033
:100E2800144603F8015B9A07F7D1032C2AD9CDB2EF
:100E380045EA05250F2C45EA054515D9A4F1100703
:100E48003F0903F1100606EB07161A4615605560B0
:100E58009560D5601032B242F8D104F00F04013722
:100E6800032C03EB07130DD91E462246043A032A26
:100E780046F8045BFAD8221F22F003020432134416
:100E880004F003042CB1C9B21C4403F8011BA342AB
:100E9800FBD1F0BC704714460346C6E7F0B5274CB3
:100EA8002668D6F8484185B00746002C41D06568C9
:100EB8001F2D1EDD224818B94FF0FF3005B0F0BDD8
:100EC8004FF4C870039102920193AFF30080039925
:100ED800029A019B04460028EED0D6F848512560B6
:100EE800002060600546C6F84841C4F88801C4F887
:100EF8008C013FB9AB1C00200135656044F8231014
:100F080005B0F0BD04EB85004FF0010CC0F8882057
:100F1800D4F888610CFA05F21643022FC4F88861E8
:100F2800C0F80831E6D1D4F88C311A43C4F88C21C2
:100F3800E0E706F5A674C6F84841B8E7541000087B
:100F480000000000024B13B10248FFF707BF7047CB
:100F580000000000910D00082DE9F04F384B1B6888
:100F680085B003F5A472019302900F460392019B8A
:100F7800D3F84881B8F1000F1CD0DDF80CB04FF061
:100F88000109DA46D8F804305C1E11D408F1880546
:100F98009E1C05EB830508EB860677B1EB6FBB4219
:100FA8000BD0013C631CA5F10405A6F10406F4D19D
:100FB800244A7ABB05B0BDE8F08FD8F8042056F86B
:100FC800043C013AA24216BF0022C8F8044046F881
:100FD800042C002BE5D0D8F88811D8F804B009FA09
:100FE80004F20A4210D0D8F88C110A420ED10298A5
:100FF80055F8041C9847D8F804305B45B7D1DAF89F
:1010080000304345CDD0B2E79847F4E755F8040CD3
:101018009847F0E7D8F804306BB9D8F8003063B1D6
:101028004046CAF80030AFF30080DAF80080B8F123
:10103800000FA7D1BEE7D8F80030C2469846F6E7B9
:1010480054100008000000004300000018000020B1
:1010580000000000F8B500BFF8BC08BC9E46704709
:0C106800F8B500BFF8BC08BC9E467047FD
:08107400C0F1FF7F0100000044
:08107C004D0F000801020008FD
:04108400D901000886
:10108800000000000000000000000000010203044E
:1010980006070809007A030A00000000040300207C
:1010A8006C030020D40300200000000000000000B2
:1010B8000000000000000000000000000000000028
:1010C80000000000000000000000000050100008B0
:1010D8000000000000000000000000000000000008
:1010E80000000000000000000000000000000000F8
:1010F80000000000000000000000000000000000E8
:1011080000000000000000000000000000000000D7
:1011180000000000000000000000000000000000C7
:1011280000000000000000000000000000000000B7
:1011380000000000000000000000000000000000A7
:1011480001000000000000000E33CDAB34126DE644
:10115800ECDE05000B0000000000000000000000AD
:101168000000000000000000000000000000000077
:101178000000000000000000000000000000000067
:101188000000000000000000000000000000000057
:101198000000000000000000000000000000000047
:0414C80018000020E8
:0414CC00000000001C
:0400000508000D19C9
:00000001FF
