:020000040800F2
:1000000000000220150B00085D0B00085D0B0008C6
:100010005D0B00085D0B00085D0B00080000000090
:100020000000000000000000000000005D0B000860
:100030005D0B0008000000005D0B00085D0B000870
:100040005D0B00085D0B00085D0B00085D0B0008F0
:100050005D0B00085D0B00085D0B00085D0B0008E0
:100060005D0B00085D0B00085D0B00085D0B0008D0
:100070005D0B00085D0B00085D0B00085D0B0008C0
:100080005D0B00085D0B00085D0B00085D0B0008B0
:100090005D0B00085D0B00085D0B00085D0B0008A0
:1000A0005D0B00085D0B00085D0B00085D0B000890
:1000B0005D0B00085D0B00085D0B00085D0B000880
:1000C0005D0B00085D0B00085D0B00085D0B000870
:1000D0005D0B00085D0B00085D0B00085D0B000860
:1000E0005D0B00085D0B00085D0B00085D0B000850
:1000F0005D0B00085D0B00085D0B00085D0B000840
:100100005D0B00085D0B00085D0B00085D0B00082F
:100110005D0B00085D0B00085D0B00085D0B00081F
:100120005D0B00085D0B00085D0B00085D0B00080F
:100130005D0B00085D0B00085D0B00085D0B0008FF
:100140005D0B00085D0B00085D0B00085D0B0008EF
:100150005D0B00085D0B00085D0B00085D0B0008DF
:100160005D0B00085D0B00085D0B00085D0B0008CF
:100170005D0B00085D0B00085D0B00085D0B0008BF
:080180005D0B00085D0B000897
:1001880008B50548054B1B1A062B00D808BD044BBB
:10019800002BFBD09847F9E7580400205B040020A7
:1001A8000000000008B50748074B1B1A9B1003EB1B
:1001B800D373591000D108BD044A002AFBD09047D8
:1001C800F9E700BF58040020580400200000000090
:1001D80010B5064C237843B9FFF7D2FF044B13B18F
:1001E8000448AFF300800123237010BD5804002099
:1001F80000000000540E000808B5074B1BB1074863
:100208000749AFF300800748036813B1064B03B1F1
:100218009847BDE80840C5E700000000540E0008F4
:100228005C0400205404002000000000134B002B45
:1002380008BF114B9D46A3F5803A00218B460F4617
:100248001148124A121A00F0DDFC0D4B002B00D0A9
:1002580098470C4B002B00D0984700200021040041
:100268000D000B4800F078FC00F0A4FC20002900E9
:1002780000F028FC00F076FC0000080000000000F8
:100288000000000000000000580400207404002052
:100298008D0B000882B000280BDD41F253730193E7
:1002A800019B5A1E002B019201DD00BFF8E70138BF
:1002B800F1E702B0704708B510482DED028B082110
:1002C800B0EE408A00F0D3FBF0EE488AB5EE408AE3
:1002D800F7EE007AF1EE10FA78EE677A04D0C8EEFD
:1002E800A78AB0EE678AF1E70448082100F0C1FB4D
:1002F800B0EE680ABDEC028B08BD00BF00040240E6
:10030800374BD3F8882042F47002C3F88820354B65
:100318001A6842F001021A6000229A60196821F0F6
:10032800847121F4803119602F495960196882B0AD
:1003380021F480211960DA60009201921A6842F46F
:1003480080321A60274B1A6802F400320192009A30
:1003580001320092019A1AB9009AB2F5A06FF1D150
:100368001B6813F4003318BF01230193019B012B71
:1003780005D01B4B4FF000629A6002B07047194BD2
:100388001A6C42F080521A64184A116841F480418C
:1003980011609A689A609A6842F400429A609A6872
:1003A80042F4A0529A60124A5A601A6842F0807267
:1003B8001A6019680B4A8901FBD50E4B40F205619A
:1003C8001960936823F003039360936843F0020372
:1003D8009360044B9B6803F00C03082BF9D1C8E722
:1003E80000ED00E0003802401030002400700040AA
:1003F80019544007003C0240174A184B916801F015
:100408000C01042903D0082903D0154A18E0154A1D
:1004180016E05068516810F4800F506814BF114AF4
:100428000F4A01F03F01B2FBF1F20B494968C1F3F1
:100438000141C0F38810013142434900B2FBF1F297
:100448001A60054A9268C2F303121A4411791A68AD
:10045800CA401A60704700BF0038024004000020FC
:100468000024F40000127A000A4B1A68002142F0B6
:1004780001021A6099601A6822F0847222F48032AC
:100488001A60054A5A601A6822F480221A60D960F4
:10049800704700BF0038024010300024024B002291
:1004A8001A701870704700BF02380240034B1A6870
:1004B80022F0F80242EAC000186070470038024093
:1004C800014B1860704700BF00004742064B0022EE
:1004D80001281A701A7002D0042802D070471870C8
:1004E800704705221A70704770380240014B186037
:1004F800704700BF800E474210B5029C40EA046076
:1005080001435B08013B41EA821242EA0344014B82
:100518005C6010BD00380240014B1860704700BF96
:10052800600047420907034B41EA8010C3F8840082
:10053800704700BF00380240014B1860704700BF89
:1005480068004742014B1860704700BF4C004742A3
:10055800034B9A6822F0EC62114308439860704795
:1005680000380240034B9A6822F07842114308434E
:100578009860704700380240034B9A6822F00302E3
:1005880010439860704700BF00380240024B9868DB
:1005980000F00C00704700BF00380240034B9A6817
:1005A80022F0F00210439860704700BF0038024004
:1005B800034B9A6822F4E05210439860704700BFDA
:1005C80000380240034B9A6822F4604242EAC000B5
:1005D80098607047003802401D4B9A6802F00C0280
:1005E800042A10B503D0082A03D01A4B18E01A4B76
:1005F80016E059685A6811F4800F596814BF164BF1
:10060800144B02F03F02B3FBF2F3114A5268C2F3F3
:100618000142C1F3881101324B435200B3FBF2F39C
:100628000B4903608B680D4AC3F30313D45C03685A
:10063800E34043608C68C4F38224145D23FA04F415
:1006480084608968C1F34231525CD340C36010BDF5
:10065800003802400024F40000127A00180000203C
:1006680000F44073B3F5407F084B08D1996820F037
:10067800704221F4F81122F440720A439A601A6F0A
:10068800C0F30B0010431867704700BF00380240E2
:10069800014B1860704700BF3C0E4742014B186081
:1006A800704700BF400E4742014B1860704700BFBB
:1006B8005C014742044B1A6B09B1104301E022EA7E
:1006C80000001863704700BF00380240044B5A6BA3
:1006D80009B1104301E022EA00005863704700BFE7
:1006E80000380240044B9A6B09B1104301E022EA3A
:1006F80000009863704700BF00380240044B1A6C32
:1007080009B1104301E022EA00001864704700BFF5
:1007180000380240044B5A6C09B1104301E022EA48
:1007280000005864704700BF00380240044B1A6943
:1007380009B1104301E022EA00001861704700BFC8
:1007480000380240044B5A6909B1104301E022EA1B
:1007580000005861704700BF00380240044B9A6996
:1007680009B1104301E022EA00009861704700BF18
:1007780000380240044B1A6A09B1104301E022EA2A
:1007880000001862704700BF00380240044B5A6AE4
:1007980009B1104301E022EA00005862704700BF27
:1007A80000380240044B1A6D09B1104301E022EAF7
:1007B80000001865704700BF00380240044B5A6DAE
:1007C80009B1104301E022EA00005865704700BFF4
:1007D80000380240044B9A6D09B1104301E022EA47
:1007E80000009865704700BF00380240044B1A6E3D
:1007F80009B1104301E022EA00001866704700BF03
:1008080000380240044B5A6E09B1104301E022EA55
:1008180000005866704700BF00380240044B1A7841
:1008280009B1104301E022EA00001870704700BFC8
:100838000D3802404309012B074A01D1136803E030
:10084800022B0CBF136F536F00F01F0023FA00F048
:1008580000F00100704700BF0038024007B50023D0
:1008680001933120FFF7E6FF019B01330193019BC0
:10087800B3F5A06F01D00028F3D03120FFF7DAFFDD
:10088800003018BF012003B05DF804FB024B5A6F1B
:1008980042F080725A67704700380240034BDB68A9
:1008A80018420CBF00200120704700BF00380240EA
:1008B800014B1870704700BF0E38024008B52C4B2A
:1008C800984205D101200146FFF730FF012048E09A
:1008D800284B984205D102200121FFF727FF02206B
:1008E8003FE0254B984205D104200121FFF71EFF68
:1008F800042036E0214B984205D108200121FFF75A
:1009080015FF08202DE01E4B984205D1102001212B
:10091800FFF70CFF102024E01A4B984205D1202045
:100928000121FFF703FF20201BE0174B984205D158
:1009380040200121FFF7FAFE402012E0134B9842B5
:1009480005D180200121FFF7F1FE802009E0104B3E
:1009580098420BD14FF480700121FFF7E7FE4FF466
:1009680080700021BDE80840FFF7E0BE08BD00BF69
:10097800000002400004024000080240000C02404F
:10098800001002400014024000180240001C0240FF
:10099800002002402DE9F0410F68002301229A400F
:1009A80002EA0705954230D15A00032406689440AC
:1009B800E443264006600E79D0F800C006FA02F833
:1009C800013E48EA0C0C012EC0F800C014D8866815
:1009D80091F805C02640866086680CFA02FC4CEA4D
:1009E80006068660466826EA050545608D794668EC
:1009F8009D40ADB235434560C5682C40C460CD7993
:100A0800C46805FA02F22243C2600133102BC5D133
:100A1800BDE8F0814FF6FF73036000230371437153
:100A28008371C371704782B04FF480330193019B87
:100A38000B430193019BC361C161019BC361C369FE
:100A48000193C369019302B07047036919420CBF4F
:100A5800002001207047006980B27047436919423D
:100A68000CBF002001207047406980B270470183A5
:100A78007047418370470AB10183704741837047CB
:100A880041617047436959404161704701F007036C
:100A9800C90800EB810010B59B00046A0F2199403A
:100AA80024EA01010162016A9A401143016210BD02
:100AB800840E000800000020540400205804002080
:100AC8007404002007B502200121FFF7F3FD082375
:100AD800009301238DF8043002238DF8053009486E
:100AE800002369468DF806308DF80730FFF752FF6E
:100AF8006420FFF7CFFB9FED040AFFF7DCFB4FF400
:100B08007A70F6E7000402408096984A002103E0D4
:100B18000B4B5B58435004310A480B4B42189A421E
:100B2800F6D30A4A02E0002342F8043B084B9A42F3
:100B3800F9D3FFF7E5FB00F03DF8FFF7C3FF704777
:100B4800840E0008000000205404002058040020EF
:100B580074040020FEE70000014600200246034618
:100B680000F09AB808B50021044600F0F3F8044BE9
:100B78001868C36B03B19847204600F075F900BFA9
:100B8800500E000838B5094D094C641BA41018BF55
:100B980005EB840505D0013C55F8043D9847002C29
:100BA800F9D1BDE8384000F059B900BF800E0008FF
:100BB800840E000870B50F4E0F4D761BB61007D087
:100BC800043D0024013455F8043F9847A642F9D162
:100BD8000A4E0B4D761B00F03BF9B61008D0043DC9
:100BE8000024013455F8043F9847A642F9D170BD56
:100BF80070BD00BF780E0008780E0008800E00084F
:100C0800780E0008F0B4840743D0541E002A3ED062
:100C1800CDB2034603E0621E002C38D0144603F818
:100C2800015B9A07F7D1032C2AD9CDB245EA0525ED
:100C38000F2C45EA054515D9A4F110073F0903F122
:100C4800100606EB07161A46156055609560D560C4
:100C58001032B242F8D104F00F040137032C03EB31
:100C680007130DD91E462246043A032A46F8045BA8
:100C7800FAD8221F22F003020432134404F00304BA
:100C88002CB1C9B21C4403F8011BA342FBD1F0BC30
:100C9800704714460346C6E7F0B5274C2668D6F8D1
:100CA800484185B00746002C41D065681F2D1EDDE0
:100CB800224818B94FF0FF3005B0F0BD4FF4C870A6
:100CC800039102920193AFF300800399029A019B6A
:100CD80004460028EED0D6F8485125600020606010
:100CE8000546C6F84841C4F88801C4F88C013FB9E4
:100CF800AB1C00200135656044F8231005B0F0BD39
:100D080004EB85004FF0010CC0F88820D4F8886106
:100D18000CFA05F21643022FC4F88861C0F80831AE
:100D2800E6D1D4F88C311A43C4F88C21E0E706F5F3
:100D3800A674C6F84841B8E7500E00080000000045
:100D4800024B13B10248FFF707BF704700000000CD
:100D58008D0B00082DE9F04F384B1B6885B003F563
:100D6800A472019302900F460392019BD3F8488125
:100D7800B8F1000F1CD0DDF80CB04FF00109DA46CD
:100D8800D8F804305C1E11D408F188059E1C05EBC8
:100D9800830508EB860677B1EB6FBB420BD0013CAD
:100DA800631CA5F10405A6F10406F4D1244A7ABB14
:100DB80005B0BDE8F08FD8F8042056F8043C013A95
:100DC800A24216BF0022C8F8044046F8042C002BA3
:100DD800E5D0D8F88811D8F804B009FA04F20A4224
:100DE80010D0D8F88C110A420ED1029855F8041C7C
:100DF8009847D8F804305B45B7D1DAF80030434556
:100E0800CDD0B2E79847F4E755F8040C9847F0E7D7
:100E1800D8F804306BB9D8F8003063B14046CAF846
:100E28000030AFF30080DAF80080B8F1000FA7D1E6
:100E3800BEE7D8F80030C2469846F6E7500E0008DC
:100E4800000000004300000028000020000000000F
:100E5800F8B500BFF8BC08BC9E467047F8B500BF9F
:080E6800F8BC08BC9E4670476F
:080E7000C4F3FF7F0100000044
:080E7800490D00080102000809
:040E8000D90100088C
:100E840000000000007A030A0000000000000000D7
:100E9400010203040607080900000000010203041C
:100EA40001020304060708090000000014030020DF
:100EB4007C030020E4030020000000000000000088
:100EC400000000000000000000000000000000001E
:100ED4000000000000000000000000004C0E0008AC
:100EE40000000000000000000000000000000000FE
:100EF40000000000000000000000000000000000EE
:100F040000000000000000000000000000000000DD
:100F140000000000000000000000000000000000CD
:100F240000000000000000000000000000000000BD
:100F340000000000000000000000000000000000AD
:100F4400000000000000000000000000000000009D
:100F540001000000000000000E33CDAB34126DE63A
:100F6400ECDE05000B0000000000000000000000A3
:100F7400000000000000000000000000000000006D
:100F8400000000000000000000000000000000005D
:100F9400000000000000000000000000000000004D
:100FA400000000000000000000000000000000003D
:0412D40028000020CE
:0412D8000000000012
:0400000508000B15CF
:00000001FF
