:020000040800F2
:10000000000002206D060008B5060008B5060008CD
:10001000B5060008B5060008B50600080000000097
:10002000000000000000000000000000B50600080D
:10003000B506000800000000B5060008B506000877
:10004000B5060008B5060008B5060008B5060008A4
:10005000B5060008B5060008B5060008B506000894
:10006000B5060008B5060008B5060008B506000884
:10007000B5060008B5060008B5060008B506000874
:10008000B5060008B5060008B5060008B506000864
:10009000B5060008B5060008B5060008B506000854
:1000A000B5060008B5060008B5060008B506000844
:1000B000B5060008B5060008B5060008B506000834
:1000C000B5060008B5060008B5060008B506000824
:1000D000B5060008B5060008B5060008B506000814
:1000E000B5060008B5060008B5060008B506000804
:1000F000B5060008B5060008B5060008B5060008F4
:10010000B5060008B5060008B5060008B5060008E3
:10011000B5060008B5060008B5060008B5060008D3
:10012000B5060008B5060008B5060008B5060008C3
:10013000B5060008B5060008B5060008B5060008B3
:10014000B5060008B5060008B5060008B5060008A3
:10015000B5060008B5060008B5060008B506000893
:10016000B5060008B5060008B5060008B506000883
:10017000B5060008B5060008B5060008B506000873
:08018000B5060008B5060008F1
:1001880008B50548054B1B1A062B00D808BD044BBB
:10019800002BFBD09847F9E7980400209B04002027
:1001A8000000000008B50748074B1B1A9B1003EB1B
:1001B800D373591000D108BD044A002AFBD09047D8
:1001C800F9E700BF98040020980400200000000010
:1001D80010B5064C237843B9FFF7D2FF044B13B18F
:1001E8000448AFF300800123237010BD9804002059
:1001F80000000000AC09000808B5074B1BB1074810
:100208000749AFF300800748036813B1064B03B1F1
:100218009847BDE80840C5E700000000AC090008A1
:100228009C0400209404002000000000134B002BC5
:1002380008BF114B9D46A3F5803A00218B460F4617
:100248001148124A121A00F089FA0D4B002B00D0FF
:1002580098470C4B002B00D0984700200021040041
:100268000D000B4800F024FA00F050FA2000290095
:1002780000F0E4F900F022FA000008000000000095
:100288000000000000000000980400204406002040
:10029800E50600080F4B4FF080521A605A69002893
:1002A80082F4804282B05A6141F253710ADD0191B1
:1002B80000E000BF019B5A1E002B0192F9DC0138B7
:1002C8000028F4DC034B5A6982F480425A6102B078
:1002D800704700BF000C02402DE9F00F764D774FB4
:1002E8004FF0000C01240226031B062B3AD8B0421B
:1002F80027D305EB860621468C42B6EC017A00F23C
:10030800B18056ED027AB4EEE77AF1EE10FA80F297
:10031800A98032460B4606E052ED027AB4EEE77A3F
:10032800F1EE10FA04DA013B9C4262ED017AF3D94E
:100338008A1C05EB8303904283ED017A01F10101E8
:10034800DAD2BCF1000F00F0B4800CF1FF3357F89B
:100358002C0057F82340031B062BACF1020C04F1C8
:100368000106C4D9211849084FEA860905EB81011D
:1003780005EB0903D1ED006AD3F800A0C1F800A08D
:10038800A2004FEA8008C3ED006A05EB020A05EBFC
:1003980008019AED007AD1ED007AB4EEE77AF1EE31
:1003A80010FA07DDCAED007A81ED007AD3ED006A14
:1003B800F0EE477AF4EEE76AF1EE10FA08DD05EBA5
:1003C8000903A844C3ED007AC8ED006AD3ED006ABA
:1003D8002A44D2ED007AF4EEE67AF1EE10FA07DD5F
:1003E80005EB0903C2ED006AF0EE676AC3ED007A17
:1003F800034631464A1C05EB820898ED007AB4EEB4
:10040800E67AF1EE10FA0BD5023105EB8101B1EC79
:10041800017AB4EEE67AF1EE10FA02F10102F6D4AE
:10042800013B4FEA830805EB0801D1ED007AF4EEB1
:10043800E67AF1EE10FA0ADD71ED017AF4EEE67A69
:10044800F1EE10FA03F1FF33F6DC4FEA83089A4223
:100458000AD805EB8201A844C1ED007A114688ED5F
:10046800007AC7E70B4663E700F1010A05EB080BC2
:10047800C2EB0A0AC4EB0308A944C245C9ED007AD5
:100488000CF10201CBED006A08D30CF1010847F822
:1004980021008C4647F82820581E25E70CF1010C4E
:1004A800013B47F82130561C47F82C4014468C462F
:1004B8001AE7BDE8F00F704704000020B4040020DC
:1004C800394A3A4BD2F88810394841F47001C2F8D9
:1004D80088101968002241F0010119609A601968B2
:1004E80021F0847121F4803119605860196882B054
:1004F80021F480211960DA60009201921A6842F4AE
:1005080080321A601A4603E0009BB3F5A06F09D049
:10051800136803F400330193009B01330093019B9C
:10052800002BF1D0214B1B6813F4003318BF0123B3
:100538000193019B012B05D01B4B4FF000629A6081
:1005480002B07047194B1B4A186C1B4940F0805089
:100558001864106840F4804010609A689A609A683D
:1005680042F400429A609A6842F4A0529A60596034
:100578001A6842F080721A6019460B680B4A9B0190
:10058800FBD50E4B40F205611960936823F0030315
:100598009360936843F002039360936803F00C033D
:1005A800082BFAD1C8E700BF00ED00E00038024090
:1005B800103000240070004019544007003C0240ED
:1005C800154B9A6802F00C02042A23D0082A09D095
:1005D800124A1149124B8968C1F30311595CCA4088
:1005E8001A617047586859685B6842024CBF0D4AE7
:1005F8000A4A01F03F01C3F38813B2FBF1F202FB90
:1006080003F2054B5B68C3F3014301335B00B2FBA4
:10061800F3F2DEE7034ADCE7003802400024F40086
:100628005400002040787D01DC090008000000200B
:1006380094040020980400204406002008B5084BC4
:100648001A6B42F008021A636420FFF723FE142095
:10065800FFF742FE4FF47A70FFF71CFEF7E700BF82
:1006680000380240002103E00B4B5B584350043133
:100678000A480B4B42189A42F6D30A4A02E0002372
:1006880042F8043B084B9A42F9D3FFF719FF00F0F0
:100698003DF8FFF7D3FF7047DC0900080000002091
:1006A800940400209804002044060020FEE700007F
:1006B800014600200246034600F09AB808B500211A
:1006C800044600F0F3F8044B1868C36B03B198476D
:1006D800204600F075F900BFA809000838B5094D93
:1006E800094C641BA41018BF05EB840505D0013C18
:1006F80055F8043D9847002CF9D1BDE8384000F082
:1007080059B900BFD8090008DC09000870B50F4EB8
:100718000F4D761BB61007D0043D0024013455F860
:10072800043F9847A642F9D10A4E0B4D761B00F0BC
:100738003BF9B61008D0043D0024013455F8043FB5
:100748009847A642F9D170BD70BD00BFD009000816
:10075800D0090008D8090008D0090008F0B48407B7
:1007680043D0541E002A3ED0CDB2034603E0621E99
:10077800002C38D0144603F8015B9A07F7D1032CF4
:100788002AD9CDB245EA05250F2C45EA054515D9E4
:10079800A4F110073F0903F1100606EB07161A46E5
:1007A800156055609560D5601032B242F8D104F0FA
:1007B8000F040137032C03EB07130DD91E462246FD
:1007C800043A032A46F8045BFAD8221F22F00302EF
:1007D8000432134404F003042CB1C9B21C4403F8D6
:1007E800011BA342FBD1F0BC704714460346C6E781
:1007F800F0B5274C2668D6F8484185B00746002C46
:1008080041D065681F2D1EDD224818B94FF0FF3012
:1008180005B0F0BD4FF4C870039102920193AFF395
:1008280000800399029A019B04460028EED0D6F86E
:1008380048512560002060600546C6F84841C4F864
:100848008801C4F88C013FB9AB1C002001356560F4
:1008580044F8231005B0F0BD04EB85004FF0010CFF
:10086800C0F88820D4F888610CFA05F21643022FE4
:10087800C4F88861C0F80831E6D1D4F88C311A433D
:10088800C4F88C21E0E706F5A674C6F84841B8E735
:10089800A809000800000000024B13B10248FFF746
:1008A80007BF704700000000E50600082DE9F04F7B
:1008B800384B1B6885B003F5A472019302900F466C
:1008C8000392019BD3F84881B8F1000F1CD0DDF8E2
:1008D8000CB04FF00109DA46D8F804305C1E11D488
:1008E80008F188059E1C05EB830508EB860677B1A1
:1008F800EB6FBB420BD0013C631CA5F10405A6F1CC
:100908000406F4D1244A7ABB05B0BDE8F08FD8F8C4
:10091800042056F8043C013AA24216BF0022C8F847
:10092800044046F8042C002BE5D0D8F88811D8F8F4
:1009380004B009FA04F20A4210D0D8F88C110A421D
:100948000ED1029855F8041C9847D8F804305B4536
:10095800B7D1DAF800304345CDD0B2E79847F4E78D
:1009680055F8040C9847F0E7D8F804306BB9D8F874
:10097800003063B14046CAF80030AFF30080DAF8BF
:100988000080B8F1000FA7D1BEE7D8F80030C24602
:100998009846F6E7A8090008000000004300000098
:1009A8006800002000000000F8B500BFF8BC08BCD3
:1009B8009E467047F8B500BFF8BC08BC9E46704715
:0809C8006CF8FF7F0100000044
:0809D000A10800080102000863
:0409D800D901000839
:1009DC00000000000000A04000008040CDCC24416D
:1009EC00CDCC8C3F6666B6400000C8420000674321
:1009FC000000DE42000046420000C64200002041DA
:100A0C000000164352385E430000CA4200009A426E
:100A1C000000304200000C42EC51A441E1FAC74204
:100A2C008FC2B1420000000000000000010203046C
:100A3C0006070809007A030A00000000540300208E
:100A4C00BC03002024040020000000000000000073
:100A5C00000000000000000000000000000000008A
:100A6C00000000000000000000000000A4090008C5
:100A7C00000000000000000000000000000000006A
:100A8C00000000000000000000000000000000005A
:100A9C00000000000000000000000000000000004A
:100AAC00000000000000000000000000000000003A
:100ABC00000000000000000000000000000000002A
:100ACC00000000000000000000000000000000001A
:100ADC00000000000000000000000000000000000A
:100AEC0001000000000000000E33CDAB34126DE6A7
:100AFC00ECDE05000B000000000000000000000010
:100B0C0000000000000000000000000000000000D9
:100B1C0000000000000000000000000000000000C9
:100B2C0000000000000000000000000000000000B9
:100B3C0000000000000000000000000000000000A9
:040E6C0068000020FA
:040E7000000000007E
:040000050800066D7C
:00000001FF
