:020000040800F2
:1000000000000220A5050008ED050008ED05000828
:10001000ED050008ED050008ED05000800000000F2
:10002000000000000000000000000000ED050008D6
:10003000ED05000800000000ED050008ED050008D2
:10004000ED050008ED050008ED050008ED050008C8
:10005000ED050008ED050008ED050008ED050008B8
:10006000ED050008ED050008ED050008ED050008A8
:10007000ED050008ED050008ED050008ED05000898
:10008000ED050008ED050008ED050008ED05000888
:10009000ED050008ED050008ED050008ED05000878
:1000A000ED050008ED050008ED050008ED05000868
:1000B000ED050008ED050008ED050008ED05000858
:1000C000ED050008ED050008ED050008ED05000848
:1000D000ED050008ED050008ED050008ED05000838
:1000E000ED050008ED050008ED050008ED05000828
:1000F000ED050008ED050008ED050008ED05000818
:10010000ED050008ED050008ED050008ED05000807
:10011000ED050008ED050008ED050008ED050008F7
:10012000ED050008ED050008ED050008ED050008E7
:10013000ED050008ED050008ED050008ED050008D7
:10014000ED050008ED050008ED050008ED050008C7
:10015000ED050008ED050008ED050008ED050008B7
:10016000ED050008ED050008ED050008ED050008A7
:10017000ED050008ED050008ED050008ED05000897
:08018000ED050008ED05000883
:1001880008B50548054B1B1A062B00D808BD044BBB
:10019800002BFBD09847F9E7480500204B050020C5
:1001A8000000000008B50748074B1B1A9B1003EB1B
:1001B800D373591000D108BD044A002AFBD09047D8
:1001C800F9E700BF480500204805002000000000AE
:1001D80010B5064C237843B9FFF7D2FF044B13B18F
:1001E8000448AFF300800123237010BD48050020A8
:1001F80000000000F408000808B5074B1BB10748C9
:100208000749AFF300800748036813B1064B03B1F1
:100218009847BDE80840C5E700000000F40800085A
:100228004C0500204405002000000000134B002B63
:1002380008BF114B9D46A3F5803A00218B460F4617
:100248001148124A121A00F025FA0D4B002B00D063
:1002580098470C4B002B00D0984700200021040041
:100268000D000B4800F0C0F900F0ECF9200029005F
:1002780000F06EF900F0BEF9000008000000000070
:100288000000000000000000480500206808002069
:100298001D0600080F4B4FF080521A605A6900285B
:1002A80082F4804282B05A6141F253710ADD0191B1
:1002B80000E000BF019B5A1E002B0192F9DC0138B7
:1002C8000028F4DC034B5A6982F480425A6102B078
:1002D800704700BF000C024080EA0120082310F498
:1002E800004F4FEA400080B21CBF80F4815080F07C
:1002F8000100013BF3D170472DE9F00FDFF8CCA0E6
:10030800BAF8006046BBD44601242CF8024BDFF84B
:10031800C0800AF50179B7B23C02A4B2082514F4EA
:10032800004F4FEA4404A4B21CBF84F4815484F003
:100338000104013DF3D107F00F053F0918F805B096
:1003480018F807502CF8024F45EA0B1409F8064034
:100358000136B6F5807FDED1002A28DBD0B240EA2C
:100368000020A9B1184D0122AC5C002BB8BF544441
:1003780002F10102B8BF94F8044284EA10240AEB9F
:10038800440492B2A488C0B28A4284EA0020EBD91D
:10039800002B09DA5AFA80F30AEB102093F80422AA
:1003A80090F8043243EA0220BDE8F00F7047002BB2
:1003B800D7DA0AEB10225AFA80F492F8042294F859
:1003C800040242EA0020CCE7040000206405002073
:1003D800DC080008394A3A4BD2F88810394841F409
:1003E8007001C2F888101968002241F001011960F3
:1003F8009A60196821F0847121F48031196058607D
:10040800196882B021F480211960DA6000920192A3
:100418001A6842F480321A601A4603E0009BB3F56A
:10042800A06F09D0136803F400330193009B0133D4
:100438000093019B002BF1D0214B1B6813F4003370
:1004480018BF01230193019B012B05D01B4B4FF0D3
:1004580000629A6002B07047194B1B4A186C1B491E
:1004680040F080501864106840F4804010609A682A
:100478009A609A6842F400429A609A6842F4A052DC
:100488009A6059601A6842F080721A6019460B68BF
:100498000B4A9B01FBD50E4B40F20561196093682E
:1004A80023F003039360936843F002039360936817
:1004B80003F00C03082BFAD1C8E700BF00ED00E0F9
:1004C80000380240103000240070004019544007E2
:1004D800003C0240154B9A6802F00C02042A23D013
:1004E800082A09D0124A1149124B8968C1F303112D
:1004F800595CCA401A617047586859685B6842027B
:100508004CBF0D4A0A4A01F03F01C3F38813B2FBFE
:10051800F1F202FB03F2054B5B68C3F301430133BD
:100528005B00B2FBF3F2DEE7034ADCE70038024087
:100538000024F4000401002040787D01240900080B
:10054800000000204405002048050020680800201D
:10055800F8B5104B104C1A6B42F008021A6364206D
:10056800FFF798FE0027002002462821012384F87F
:100578002970FFF7C1FE2A21060A0022012384F808
:100588002A0084F82960FFF7B7FE4FF47A70FFF766
:1005980081FEE8E70038024004000020002103E063
:1005A8000B4B5B58435004310A480B4B42189A4294
:1005B800F6D30A4A02E0002342F8043B084B9A4269
:1005C800F9D3FFF707FF00F03DF8FFF7C1FF7047C9
:1005D80024090008000000204405002048050020E8
:1005E80068080020FEE70000014600200246034696
:1005F80000F09AB808B50021044600F0F3F8044B5F
:100608001868C36B03B19847204600F07DF900BF16
:10061800F008000838B5094D094C641BA41018BF30
:1006280005EB840505D0013C55F8043D9847002C9E
:10063800F9D1BDE8384000F061B900BF20090008D1
:100648002409000870B50F4E0F4D761BB61007D061
:10065800043D0024013455F8043F9847A642F9D1D7
:100668000A4E0B4D761B00F043F9B61008D0043D36
:100678000024013455F8043F9847A642F9D170BDCB
:1006880070BD00BF180900081809000820090008F3
:1006980018090008F0B4840743D0541E002A3ED03D
:1006A800CDB2034603E0621E002C38D0144603F88E
:1006B800015B9A07F7D1032C2AD9CDB245EA052563
:1006C8000F2C45EA054515D9A4F110073F0903F198
:1006D800100606EB07161A46156055609560D5603A
:1006E8001032B242F8D104F00F040137032C03EBA7
:1006F80007130DD91E462246043A032A46F8045B1E
:10070800FAD8221F22F003020432134404F003042F
:100718002CB1C9B21C4403F8011BA342FBD1F0BCA5
:10072800704714460346C6E7F0B5274C2668D6F846
:10073800484185B00746002C41D065681F2D1EDD55
:10074800224818B94FF0FF3005B0F0BD4FF4C8701B
:10075800039102920193AFF300800399029A019BDF
:1007680004460028EED0D6F8485125600020606085
:100778000546C6F84841C4F88801C4F88C013FB959
:10078800AB1C00200135656044F8231005B0F0BDAE
:1007980004EB85004FF0010CC0F88820D4F888617C
:1007A8000CFA05F21643022FC4F88861C0F8083124
:1007B800E6D1D4F88C311A43C4F88C21E0E706F569
:1007C800A674C6F84841B8E7F00800080000000021
:1007D800024B13B10248FFF707BF70470000000043
:1007E8001D0600082DE9F04F384B1B6885B003F54E
:1007F800A472019302900F460392019BD3F848819B
:10080800B8F1000F1CD0DDF80CB04FF00109DA4642
:10081800D8F804305C1E11D408F188059E1C05EB3D
:10082800830508EB860677B1EB6FBB420BD0013C22
:10083800631CA5F10405A6F10406F4D1244A7ABB89
:1008480005B0BDE8F08FD8F8042056F8043C013A0A
:10085800A24216BF0022C8F8044046F8042C002B18
:10086800E5D0D8F88811D8F804B009FA04F20A4299
:1008780010D0D8F88C110A420ED1029855F8041CF1
:100888009847D8F804305B45B7D1DAF800304345CB
:10089800CDD0B2E79847F4E755F8040C9847F0E74D
:1008A800D8F804306BB9D8F8003063B14046CAF8BC
:1008B8000030AFF30080DAF80080B8F1000FA7D15C
:1008C800BEE7D8F80030C2469846F6E7F0080008B8
:1008D800000000000008040C020A060E0109050DBC
:1008E800030B070F43000000180100200000000060
:1008F800F8B500BFF8BC08BC9E467047F8B500BF05
:08090800F8BC08BC9E467047D4
:0809100024F9FF7F0100000043
:08091800D907000801020008E4
:04092000D9010008F1
:10092400000000006173646666656167657761480D
:10093400414645466165447346456177466473465E
:1009440061656661656572646A6770000000000035
:100954000000000000000000000000000000000093
:100964000000000000000000000000000000000083
:100974000000000000000000000000000000000073
:100984000000000000000000000000000000000063
:100994000000000000000000000000000000000053
:1009A4000000000000000000000000000000000043
:1009B4000000000000000000000000000000000033
:1009C4000000000000000000000000000000000023
:1009D4000000000000000000000000000000000013
:1009E4000000000000000000000000000000000003
:1009F40000000000000000000000000000000000F3
:100A040000000000000000000000000000000000E2
:100A140000000000000000000000000000000000D2
:100A240000000000000000000000000001020304B8
:100A340006070809007A030A0000000004040020E5
:100A44006C040020D404002000000000000000001A
:100A54000000000000000000000000000000000092
:100A6400000000000000000000000000EC08000886
:100A74000000000000000000000000000000000072
:100A84000000000000000000000000000000000062
:100A94000000000000000000000000000000000052
:100AA4000000000000000000000000000000000042
:100AB4000000000000000000000000000000000032
:100AC4000000000000000000000000000000000022
:100AD4000000000000000000000000000000000012
:100AE40001000000000000000E33CDAB34126DE6AF
:100AF400ECDE05000B000000000000000000000018
:100B040000000000000000000000000000000000E1
:100B140000000000000000000000000000000000D1
:100B240000000000000000000000000000000000C1
:100B340000000000000000000000000000000000B1
:040E64001801002051
:040E68000000000086
:04000005080005A545
:00000001FF
