:020000040800F2
:1000000000000220F51200083D1300083D1300080F
:100010003D1300083D1300083D13000800000000D8
:100020000000000000000000000000003D13000878
:100030003D130008000000003D1300083D130008B8
:100040003D1300083D1300083D1300083D13000850
:100050003D1300083D1300083D1300083D13000840
:100060003D1300083D1300083D1300083D13000830
:100070003D1300083D1300083D1300083D13000820
:100080003D1300083D1300083D1300083D13000810
:100090003D1300083D1300083D1300083D13000800
:1000A0003D1300083D1300083D1300083D130008F0
:1000B0003D1300083D1300083D1300083D130008E0
:1000C0003D1300083D1300083D1300083D130008D0
:1000D0003D1300083D1300083D1300083D130008C0
:1000E0003D1300083D1300083D1300083D130008B0
:1000F0003D1300083D1300083D1300083D130008A0
:100100003D1300083D1300083D1300083D1300088F
:100110003D1300083D1300083D1300083D1300087F
:100120003D1300083D1300083D1300083D1300086F
:100130003D1300083D1300083D1300083D1300085F
:100140003D1300083D1300083D1300083D1300084F
:100150003D1300083D1300083D1300083D1300083F
:100160003D1300083D1300083D1300083D1300082F
:100170003D1300083D1300083D1300083D1300081F
:080180003D1300083D130008C7
:1001880008B50548054B1B1A062B00D808BD044BBB
:10019800002BFBD09847F9E7D8080020DB0800209F
:1001A8000000000008B50748074B1B1A9B1003EB1B
:1001B800D373591000D108BD044A002AFBD09047D8
:1001C800F9E700BFD8080020D80800200000000088
:1001D80010B5064C237843B9FFF7D2FF044B13B18F
:1001E8000448AFF300800123237010BDD808002015
:1001F800000000003416000808B5074B1BB107487B
:100208000749AFF300800748036813B1064B03B1F1
:100218009847BDE80840C5E700000000341600080C
:10022800DC080020D408002000000000134B002B3D
:1002380008BF114B9D46A3F5803A00218B460F4617
:100248001148124A121A01F0CDF80D4B002B00D0BC
:1002580098470C4B002B00D0984700200021040041
:100268000D000B4801F068F801F094F8200029000F
:1002780000F0E4FF01F066F800000800000000004C
:100288000000000000000000D8080020CC0B00206F
:100298006D1300080F4B4FF080521A605A690028FE
:1002A80082F4804282B05A6141F253710ADD0191B1
:1002B80000E000BF019B5A1E002B0192F9DC0138B7
:1002C8000028F4DC034B5A6982F480425A6102B078
:1002D800704700BF000C02400028B8BF404270477A
:1002E8000028B8BF4042704741F68A03984230B4AC
:1002F80004DDA0F5C4500A389842FADC104B984245
:1003080004DA00F5C4500A309842FADB00FB00F525
:100318006D420C4A05FB00F382FB0312A2EBE37269
:100328001044042303E091FBF4F21044023303FB6E
:10033800033405FB02F1002AF5D130BC704700BF39
:1003480076E7FFFFABAAAA2AC0F5C4600230FFF720
:10035800CBBF00BF2DE9F00F4648474C4749DFF8AF
:1003680084B1DFF884A1DFF88491DFF88481DFF8B5
:1003780084C1434F434E444D444B002222600260E7
:100388000A60434C43484449CBF80020CAF800208F
:10039800C9F80020C8F80020CCF80020DFF858B1D0
:1003A800DFF858A1DFF85891DFF85881DFF858C115
:1003B8003A603260394F3A4E2A602260394D3A4CE1
:1003C80002600A6039483A491A60CBF80020394B74
:1003D800CAF80020C9F80020C8F80020CCF800208E
:1003E800DFF828B1DFF828A1DFF82891DFF82881A5
:1003F800DFF828C13A603260202708262A60226088
:1004080002600A602C4D2D4C2D482E491A60CBF8FD
:1004180000201346CAF80070C9F80070C8F80060D8
:10042800CCF80060EA50E250C250CA500433182B8E
:10043800F8D10023244D254C254826491A46EA5070
:10044800E250C250CA500433182BF8D1224B002175
:1004580003F15C0243F8041F9342FBD100231F48B9
:100468001F491A46C250CA5004332C2BFAD1BDE892
:10047800F00F7047780B0020340A00200C0B002086
:10048800380A0020840A0020400A0020E80A0020D8
:10049800D40900205C0B00201C0A00204C0B002013
:1004A800540B0020EC09002088090020A00B002034
:1004B800080A0020700A002058090020540A002069
:1004C80070090020F0090020600B0020B00B00200C
:1004D8007C0B0020F00A0020840A0020180B002062
:1004E8009C090020440B0020500B0020A80B002082
:1004F8005009002038090020200A00203409002073
:100508004C090020140B0020940B002054090020F3
:10051800100B0020C8090020300A0020180A00200B
:1005280002680B6830B403FB02F300F1140550F8BD
:10053800042F51F8044FA84204FB0233F7D1981353
:1005480030BC7047520002FB03F3400000FB01304F
:10055800C013704730B40D4A80EAE075A5EBE0752A
:10056800002302E001331E2B06D052F8044F04FB8F
:1005780001F4B5EBE43FF5DC054A02EB8303002800
:10058800ACBF986FD3F8F40030BC7047000000206F
:1005980004000020094B20F003000344C1EBC11103
:1005A800D3F8703113EBE11005D4B0F5904FA8BF24
:1005B8004FF4904070470020704700BF04000020AF
:1005C800064BC0F3841203EB82030131D3F8B03138
:1005D800A1EBE02043FA00F0C000704704000020BF
:1005E80030B4A0B902F118041368C3EB03231B123B
:1005F80042F8043BA242F7D101F1080234CA0B6861
:100608004D610C61CA6081E8090030BC7047002365
:10061800CD58D45805FB00F5002DB4BF6FF07F0509
:100628008025C4EB042405EB2424D4500433182B70
:10063800EED1E1E72DE9F04F454FDFF840817B68C7
:10064800D8F830623D68D8F83442D8F83822BC4629
:1006580006FB05F55CF808EF04FB03F983B0734665
:1006680008F50E7607F1580A8E4602FB0355DCF8AA
:1006780004405CF8083F716856F8082FD44501FB20
:100688000499F2D171469E46FE6D324B0EFB02551F
:10069800D8F88C22A3F1580C02FB069901E053F814
:1006A800084C43F804496345F9D1DFF8CCA02A4C3B
:1006B8002A4EDAF8002043F8041C05EB090C4FEA2F
:1006C800EC3C2368C6F800C0C9EB0505244E7860E9
:1006D800ED1303FB02FB5046234635600AF1140470
:1006E80050F8042F53F8041FA04201FB02BBF7D1B6
:1006F8001C4F1D4E1D4C38681D4D316822682B68F3
:10070800DFF87CA0DFF87C90DFF87CE0400001FB9C
:1007180000F0520003FB0203DB134FEAAB32D1189F
:100728001448DFF868B0C9F80030C1EB0C0CCAF8FF
:100738000020C0F800C0DEF800A0DFF85490CBF825
:1007480000108CEAEC70A0EBEC70002325E000BFF1
:10075800880A0020E40A002058090020980B00208D
:10076800240A0020340A0020500B0020780B0020B7
:10077800A80B00204C0A0020600B00200400002079
:10078800E80900203C090020C8090020DC090020F5
:100798000000002001331E2B06D059F8041F01FB6E
:1007A8000AF1B0EBE13FF5DC08EB8303BCF1000F85
:1007B800ACBF986FD3F8F400DFF854C3DFF848B340
:1007C800DCF80030CBF8000020F003014144C3EB13
:1007D800C313D1F89092D1F8701109FB0AF0DFF831
:1007E8000493C01311EBE313C9F8000000F15B8117
:1007F800B3F5904F40F368814FF0000A51464FF42B
:10080800904308EB8101DFF80C93D1F8B0B1CCF834
:1008180000304BFA0AF300EB020CDB00AE49AF4A9A
:10082800CEF80030C9F800C0FFF7DAFEAC48D9F8B6
:100838000030D0F800C0DFF8E0E22A68DEF800B047
:10084800D6F800A00CFB03F99100B9F1000FA8BF7E
:1008580049420BFB03FBC911BBF1000FACBF803150
:100868008039CAEBCA1A01EBEA1ABAF5405F00F3FD
:1008780015811AF5405FA8BFCAF5705103DADFF891
:100888009CA24FF4D841C2EB02221212B9F1000F18
:10089800ACBFC032C03A8A42C6F800A003DC494265
:1008A8009142B8BF1146DFF878B28E4E8E4ADBF817
:1008B8000090D6F800B08D4E2960DFF868A2156860
:1008C8003168036009EB0B002368CAF80000206058
:1008D800CEF800C03B6001FB05FA02F1140052F8A3
:1008E800043F56F8041F824201FB03AAF7D1804F48
:1008F800804E814C3868814D316822682B68DFF85A
:100908002892DFF828E2D9F800C0DFF824B2DFF82F
:100918002492400001FB00F1520003FB0213DB1399
:100928004FEAAA32CEF80030DFF80CE2DFF80CA26A
:10093800C9F80020D018C0EB0C01CBF80000DEF895
:1009480000006F4BCAF800104FF40D7C00290CFB17
:1009580000FCB8BF49424FEA2C3CDFF8A491019350
:10096800ACBF032301236145C9F8003004DDDDF87D
:1009780004B0013BCBF8003008EB8301DFF8C0C1BD
:10098800D1F8D092DCF80030D1F8E01209FB00F081
:10099800C3EBC313DFF86C91C01311EBE313C9F871
:1009A800000000F18580B3F5B04F40F386804FF02A
:1009B800000A51464FF4B04308EB8101DFF88491F7
:1009C800D1F8B081CCF8003048FA0AF300EB020CF9
:1009D800DB004649444AC9F800C0CEF80030FFF7AA
:1009E800FFFDDFF864C1D9F80030DFF86081DCF87A
:1009F80000902A68D8F800B0D6F800A009FB03F0E8
:100A080091000028A8BF49420BFB03FBC911BBF1A9
:100A1800000FACBF80318039CAEBCA1A01EBEA1A61
:100A2800BAF5405F35DC1AF5405FA8BFCAF57051CA
:100A380003DADFF8E8A04FF4D841C2EB0222121221
:100A48000028ACBFC032C03A8A42C6F800A003DC16
:100A580049429142B8BF1146DFF8D4B0294ADBF8C1
:100A680000601068DDF804B0274ADBF800A0D2F86F
:100A780000B0CCF800302268244B3A6006444BEAB8
:100A88008A102960C8F800901E60266003B0BDE88F
:100A9800F08F4FF440614FF4405ACEE74FF4406175
:100AA8004FF4405AEFE600210B464FF0090AA8E63A
:100AB80000210B464FF00B0A7EE74FEAE32ACAF102
:100AC8000B0AC3F3841177E74FEAE32ACAF1090A4C
:100AD800C3F3841195E600BF58090020600B00207D
:100AE800440B00207C0A0020B00B0020540A002090
:100AF80038090020400A0020E80A0020D409002014
:100B08004809002090090020440A0020D00900204C
:100B1800500900209C0B00200C0B002000D0FFFF88
:100B2800DC090020D8090020240A0020780A0020C7
:100B38009809002040090020180A0020CC0900204C
:100B48005C0B00208C090020840A0020380A002051
:100B58002DE9F04FCA4ACB4DCB4914680B6800F019
:100B68003F062E60C94D8011286085B003FB04F351
:100B780002F1140552F8040F51F8044FAA4204FB7D
:100B88000033F7D1C24ADFF86CB3C24D1268DBF804
:100B98000010C14C2868DFF860A3C04FDFF85CC3C1
:100BA80006F03C0EBE4E06EB82084E00BC4AD8F852
:100BB800F08200FB06F026689644DAF800207100FF
:100BC80002FB0109DEF87011DEF890020191396824
:100BD800B44AB54E9B134FEAE93908FB01F800FB0C
:100BE80001F0B249CCF8003003EB090C4FEAE838C1
:100BF800C1F800C0AE49C2F80090C444AD4AD6F866
:100C080000E0C1F800C00199C2F80080CEEBCE1E0A
:100C1800DFF8EC82C01311EBEE12C8F8000000F107
:100C2800DA81B2F5904F40F3E7814FF0000E71463C
:100C38004FF49042DFF868C2DFF8C89232600CEBDC
:100C480081010344D1F8B0C18D4A8F49C9F80030F9
:100C58004CFA0EFE4FEACE063E60FFF7C1FC9648FE
:100C6800D9F800200768954EDAF80030D6F80090D9
:100C7800D5F800C007FB02FE9900BEF1000FA8BF1F
:100C8800494209FB02F9C911B9F1000FACBF803123
:100C98008039CCEBCC1C01EBEC1CBCF5405F00F3BD
:100CA80095811CF5405F80F2B181DFF834C24FF4C2
:100CB800D841C3EB03231B12BEF1000FACBFC033F6
:100CC800C03B8B42C5F800C003DC49429942B8BF1B
:100CD8001946764D7A4BD5F800E0D8F800C0794D22
:100CE800CAF800107849376002601E682F682268C9
:100CF800CBF800200EEB0C0008601946206007FBBB
:100D080006F301F1140451F8042F55F8040FA14219
:100D180000FB0233F7D15D4EDFF8ECB13268DFF843
:100D280080A16A4EDBF80000694C6A4D6A4FDFF813
:100D3800DCE1DFF8DCC10AEB82083268D8F8E0A20F
:100D4800400002FB00F120682A684FEA4009D8F801
:100D5800D00202FB09183A68DEF80010DFF8B491F7
:100D68009B1302FB00F05D4ACCF800304FEAE838EC
:100D7800C013C1EBC111DFF86CC1C9F80080106065
:100D880098441AEBE112CCF8008000F12981B2F501
:100D9800B04F40F32A814FF0000C61464FF4B04247
:100DA800DFF8FC80CEF8002008EB8101DFF86881CD
:100DB800D1F8B091424A434949FA0CFCDFF85C91FA
:100DC80003444FEACC0CC7F800C0C8F80030FFF75E
:100DD80007FCD8F80010DFF848C1D9F800802B6864
:100DE800DCF800A0376808FB01F09A000028A8BFCB
:100DF80052420AFB01FAD211BAF1000FACBF80329D
:100E0800803AC7EBC71702EBE717B7F5405F00F367
:100E1800D88017F5405F80F2F680314F4FF4D84202
:100E2800C3EB03231B120028ACBFC033C03B934263
:100E3800376003DC52429A42B8BF1A4629482A60F2
:100E4800174D264ED0F800A0D5F830521848336810
:100E58000395134D0768244E244AD5F83452029559
:100E68005344C9F80010C3EB070921682048CCF89F
:100E780000801F44DFF8AC803360CBF8001053E0EB
:100E88007C0B0020480A0020700900204809002037
:100E9800440A0020140B0020200A0020100B002018
:100EA80004000020500A0020700A0020280A0020B0
:100EB80030090020800A00204C0900203409002055
:100EC800F00A0020F009002044090020A00B0020AF
:100ED800540B0020080A0020300A0020100A0020C5
:100EE80000D0FFFFEC0A0020140A0020A40B002009
:100EF800080B00201C0A0020940B00200C0A00207C
:100F08003C0A0020480B00204C0B0020540900200C
:100F18006C0A002094090020740A00208809002027
:100F2800EC0900209C0900203A4EDFF8F4C0176055
:100F38000399029A2360D6F83852C0F8009001FB52
:100F480009F406F50E70434602FB07F608F1280B74
:100F5800E24601975AF8042B53F8041B05FB024498
:100F680045685B4505FB016650F8085FF2D1DFF87C
:100F7800A4A0019FDAF88C02DFF8A8A09346D8F85D
:100F8800282000FB0266DCF8280000FB0544224DFF
:100F98002248B613A413CAF800602C605A4603E02E
:100FA80050F8042C53F8041C40F80429604543F811
:100FB8000419F5D1C0F80090C8F8007005B0BDE874
:100FC800F08F4FF440624FF4405729E74FF44061E7
:100FD8004FF4405C6DE600210A464FF0090E29E601
:100FE80000210A464FF00B0CDAE64FEAE22CCCF16E
:100FF8000B0CC2F38411D3E64FEAE22ECEF1090EB0
:10100800C2F3841116E6C7F5705209E7CCF57051A2
:101018004FE600BF04000020E0090020400B00203C
:10102800180B00202C0A002010B403FB02F3019CCB
:101038008000002BA8BF404204FB02F2C011002A26
:10104800ACBF80308038C1EBC11100EBE110B0F5C6
:10105800405F06DC054B5DF8044B9842B8BF184664
:1010680070474FF440505DF8044B704700D0FFFFC5
:1010780003FB02F3C0EB0020002B4FEA2020ACBF9B
:10108800C030C038C1F570518842A8BF08464942EF
:101098008842B8BF08467047084B03EB8000C1EB95
:1010A800C111D0F8E03213EBE11005D4B0F5B04F20
:1010B800A8BF4FF4B04070470020704704000020DC
:1010C800394A3A4BD2F88810394841F47001C2F8CD
:1010D80088101968002241F0010119609A601968A6
:1010E80021F0847121F4803119605860196882B048
:1010F80021F480211960DA60009201921A6842F4A2
:1011080080321A601A4603E0009BB3F5A06F09D03D
:10111800136803F400330193009B01330093019B90
:10112800002BF1D0214B1B6813F4003318BF0123A7
:101138000193019B012B05D01B4B4FF000629A6075
:1011480002B07047194B1B4A186C1B4940F080507D
:101158001864106840F4804010609A689A609A6831
:1011680042F400429A609A6842F4A0529A60596028
:101178001A6842F080721A6019460B680B4A9B0184
:10118800FBD50E4B40F205611960936823F0030309
:101198009360936843F002039360936803F00C0331
:1011A800082BFAD1C8E700BF00ED00E00038024084
:1011B800103000240070004019544007003C0240E1
:1011C800154B9A6802F00C02042A23D0082A09D089
:1011D800124A1149124B8968C1F30311595CCA407C
:1011E8001A617047586859685B6842024CBF0D4ADB
:1011F8000A4A01F03F01C3F38813B2FBF1F202FB84
:1012080003F2054B5B68C3F3014301335B00B2FB98
:10121800F3F2DEE7034ADCE7003802400024F4007A
:101228009404002040787D01641600080000002026
:10123800D4080020D8080020CC0B00202DE9F84362
:10124800244B254D1A6BDFF89C90DFF89C8042F008
:1012580008021A636420FFF71DF82C46FFF77AF896
:1012680040F22260FFF740F800EB800046001B4880
:101278002E60FFF739F800EB8000470018486F60D0
:10128800FFF732F800EB80035B0039463046AB606D
:10129800FFF7D0F9E1680646A068A661FFF7CAF92A
:1012A80007463046E761FFF753FCD9F80020D8F825
:1012B800003062623846A362FFF74AFCD9F8002082
:1012C800D8F80030E2624FF47A702363FEF7E2FF49
:1012D800C4E700BF00380240F4080020122BA0FF2A
:1012E800025040FFE00900202C0A0020002103E002
:1012F8000B4B5B58435004310A480B4B42189A4237
:10130800F6D30A4A02E0002342F8043B084B9A420B
:10131800F9D3FFF7D5FE00F03DF8FFF78FFF7047D0
:101328006416000800000020D4080020D808002017
:10133800CC0B0020FEE700000146002002460346D1
:1013480000F09AB808B50021044600F0F3F8044B01
:101358001868C36B03B19847204600F075F900BFC1
:101368003016000838B5094D094C641BA41018BF85
:1013780005EB840505D0013C55F8043D9847002C41
:10138800F9D1BDE8384000F059B900BF601600082F
:101398006416000870B50F4E0F4D761BB61007D0B7
:1013A800043D0024013455F8043F9847A642F9D17A
:1013B8000A4E0B4D761B00F03BF9B61008D0043DE1
:1013C8000024013455F8043F9847A642F9D170BD6E
:1013D80070BD00BF581600085816000860160008AF
:1013E80058160008F0B4840743D0541E002A3ED093
:1013F800CDB2034603E0621E002C38D0144603F831
:10140800015B9A07F7D1032C2AD9CDB245EA052505
:101418000F2C45EA054515D9A4F110073F0903F13A
:10142800100606EB07161A46156055609560D560DC
:101438001032B242F8D104F00F040137032C03EB49
:1014480007130DD91E462246043A032A46F8045BC0
:10145800FAD8221F22F003020432134404F00304D2
:101468002CB1C9B21C4403F8011BA342FBD1F0BC48
:10147800704714460346C6E7F0B5274C2668D6F8E9
:10148800484185B00746002C41D065681F2D1EDDF8
:10149800224818B94FF0FF3005B0F0BD4FF4C870BE
:1014A800039102920193AFF300800399029A019B82
:1014B80004460028EED0D6F8485125600020606028
:1014C8000546C6F84841C4F88801C4F88C013FB9FC
:1014D800AB1C00200135656044F8231005B0F0BD51
:1014E80004EB85004FF0010CC0F88820D4F888611F
:1014F8000CFA05F21643022FC4F88861C0F80831C7
:10150800E6D1D4F88C311A43C4F88C21E0E706F50B
:10151800A674C6F84841B8E7301600080000000075
:10152800024B13B10248FFF707BF704700000000E5
:101538006D1300082DE9F04F384B1B6885B003F593
:10154800A472019302900F460392019BD3F848813D
:10155800B8F1000F1CD0DDF80CB04FF00109DA46E5
:10156800D8F804305C1E11D408F188059E1C05EBE0
:10157800830508EB860677B1EB6FBB420BD0013CC5
:10158800631CA5F10405A6F10406F4D1244A7ABB2C
:1015980005B0BDE8F08FD8F8042056F8043C013AAD
:1015A800A24216BF0022C8F8044046F8042C002BBB
:1015B800E5D0D8F88811D8F804B009FA04F20A423C
:1015C80010D0D8F88C110A420ED1029855F8041C94
:1015D8009847D8F804305B45B7D1DAF8003043456E
:1015E800CDD0B2E79847F4E755F8040C9847F0E7F0
:1015F800D8F804306BB9D8F8003063B14046CAF85F
:101608000030AFF30080DAF80080B8F1000FA7D1FE
:10161800BEE7D8F80030C2469846F6E7301600080C
:101628000000000043000000A804002000000000A3
:10163800F8B500BFF8BC08BC9E467047F8B500BFB7
:08164800F8BC08BC9E46704787
:08165000E4EBFF7F0100000044
:08165800291500080102000839
:04166000D9010008A4
:1016640000000000180100004002000070030000A8
:10167400B0040000F005000048070000A0080000C6
:10168400180A0000900B0000300D0000C80E000086
:101694009010000058120000501400005016000072
:1016A40090180000D01A0000601D0000F81F000010
:1016B4000823000018260000D8290000902D0000FF
:1016C4006032000028370000E03D0000984400002C
:1016D400E84F0000385B0000FF7F00003D00000081
:1016E4003C0000003B0000003A000000390000000C
:1016F400380000003700000036000000350000000C
:10170400340000003300000032000000310000000B
:10171400300000002F0000002E0000002D0000000B
:101724002C0000002B0000002A000000290000000B
:10173400280000002700000026000000250000000B
:10174400240000002300000022000000210000000B
:1017540020000000200000003F0000003E000000C8
:101764001F0000001E0000001D0000001C000000FF
:101774001B0000001A0000001900000018000000FF
:1017840017000000160000001500000014000000FF
:1017940013000000120000001100000010000000FF
:1017A4000F0000000E0000000D0000000C000000FF
:1017B4000B0000000A0000000900000008000000FF
:1017C40007000000060000000500000004000000FF
:1017D40004000000C4FFFFFFE20B0000AE040000A1
:1017E4001A0200004E010000AC0000003A000000A4
:1017F400E2FFFFFFE20B0000AE0400001A0200004B
:101804004E010000AC0000003A000000E2FFFFFFC0
:10181400C4FFFFFF000800002D0800005B08000063
:101824008A080000B9080000EA0800001C0900004A
:101834004F09000083090000B9090000EF09000006
:10184400270A0000600A00009A0A0000D60A000075
:10185400120B0000500B0000900B0000D10B000095
:10186400130C0000560C00009C0C0000E20C00005D
:101874002B0D0000740D0000C00D00000D0E0000C3
:101884005C0E0000AC0E0000FE0E0000520F0000C3
:10189400A80F00000C000000D4FFFFFFD4FFFFFFDF
:1018A400D40000003000000090FDFFFF8000000025
:1018B400A8050000B8FCFFFF6CF3FFFFDC0E00007E
:1018C400903C0000903C0000DC0E00006CF3FFFF35
:1018D400B8FCFFFFA80500008000000090FDFFFF9A
:1018E40030000000D4000000D4FFFFFFD4FFFFFF4E
:1018F4000C0000000000000018B0FFFFA0CDFFFFA7
:10190400F8DCFFFF70E7FFFF70EFFFFFE8F5FFFF74
:1019140050FBFFFFE84F0000603200000823000086
:101924009018000090100000180A0000B004000095
:101934000000000010E3FFFFB0F9FFFFF01C0000FF
:10194400500600001E0300002AFFFFFF1E030000D4
:101954002AFFFFFF78FFFFFF78FFFFFF78FFFFFFFD
:1019640078FFFFFF189FFFFF70AAFFFFC0B5FFFFBE
:10197400C0BEFFFF78C5FFFF38CBFFFF08D0FFFFD5
:1019840048D4FFFF08D8FFFF70DBFFFF80DEFFFFB6
:1019940050E1FFFFE8E3FFFF50E6FFFF90E8FFFFA1
:1019A400B0EAFFFFB0ECFFFF90EEFFFF58F0FFFF3F
:1019B40008F2FFFFA0F3FFFF28F5FFFFA0F6FFFFEB
:1019C40010F8FFFF68F9FFFFB0FAFFFFF0FBFFFF1D
:1019D40028FDFFFFE860000090550000404A000029
:1019E40040410000883A0000C8340000F82F00008D
:1019F400B82B0000F827000090240000802100008C
:101A0400B01E0000181C0000B01900007017000080
:101A1400501500005013000070110000A80F0000C2
:101A2400F80D0000600C0000D80A000060090000F6
:101A3400F0070000980600005005000010040000A4
:101A4400D8020000B00100008800000050FEFFFF33
:101A540078FFFFFFC4FFFFFFE2FFFFFF3A00000033
:101A6400AC0000004E0100001A020000AE040000A9
:101A7400E20B0000E8FEFFFFE8FEFFFFC8A4FFFF43
:101A840068BBFFFFD8C8FFFF70D2FFFFE8D9FFFF94
:101A940008E0FFFF30E5FFFFB0E9FFFFA8EDFFFF1F
:101AA40038F1FFFF70F4FFFF60F7FFFF10FAFFFF4C
:101AB40090FCFFFF385B00009844000028370000CA
:101AC400902D000018260000F81F0000D01A000016
:101AD4005016000058120000C80E0000900B0000C1
:101AE400A0080000F00500007003000018010000C9
:101AF400E8FEFFFF000000000000000001020304F4
:101B040006070809007A030A000000009407002071
:101B1400FC07002064080020000000000000000012
:101B240000000000000000000000000000000000B1
:101B34000000000000000000000000002C16000857
:101B44000000000000000000000000000000000091
:101B54000000000000000000000000000000000081
:101B64000000000000000000000000000000000071
:101B74000000000000000000000000000000000061
:101B84000000000000000000000000000000000051
:101B94000000000000000000000000000000000041
:101BA4000000000000000000000000000000000031
:101BB40001000000000000000E33CDAB34126DE6CE
:101BC400ECDE05000B000000000000000000000037
:101BD4000000000000000000000000000000000001
:101BE40000000000000000000000000000000000F1
:101BF40000000000000000000000000000000000E1
:101C040000000000000000000000000000000000D0
:041F3400A8040020DD
:041F380000000000A5
:04000005080012F5E8
:00000001FF
