:020000040800F2
:10000000000002208D050008D5050008D505000870
:10001000D5050008D5050008D5050008000000003A
:10002000000000000000000000000000D5050008EE
:10003000D505000800000000D5050008D50500081A
:10004000D5050008D5050008D5050008D505000828
:10005000D5050008D5050008D5050008D505000818
:10006000D5050008D5050008D5050008D505000808
:10007000D5050008D5050008D5050008D5050008F8
:10008000D5050008D5050008D5050008D5050008E8
:10009000D5050008D5050008D5050008D5050008D8
:1000A000D5050008D5050008D5050008D5050008C8
:1000B000D5050008D5050008D5050008D5050008B8
:1000C000D5050008D5050008D5050008D5050008A8
:1000D000D5050008D5050008D5050008D505000898
:1000E000D5050008D5050008D5050008D505000888
:1000F000D5050008D5050008D5050008D505000878
:10010000D5050008D5050008D5050008D505000867
:10011000D5050008D5050008D5050008D505000857
:10012000D5050008D5050008D5050008D505000847
:10013000D5050008D5050008D5050008D505000837
:10014000D5050008D5050008D5050008D505000827
:10015000D5050008D5050008D5050008D505000817
:10016000D5050008D5050008D5050008D505000807
:10017000D5050008D5050008D5050008D5050008F7
:08018000D5050008D5050008B3
:1001880008B50548054B1B1A062B00D808BD044BBB
:10019800002BFBD09847F9E7480400204B040020C7
:1001A8000000000008B50748074B1B1A9B1003EB1B
:1001B800D373591000D108BD044A002AFBD09047D8
:1001C800F9E700BF480400204804002000000000B0
:1001D80010B5064C237843B9FFF7D2FF044B13B18F
:1001E8000448AFF300800123237010BD48040020A9
:1001F80000000000CC08000808B5074B1BB10748F1
:100208000749AFF300800748036813B1064B03B1F1
:100218009847BDE80840C5E700000000CC08000882
:100228004C0400204404002000000000134B002B65
:1002380008BF114B9D46A3F5803A00218B460F4617
:100248001148124A121A00F019FA0D4B002B00D06F
:1002580098470C4B002B00D0984700200021040041
:100268000D000B4800F0B4F900F0E0F92000290077
:1002780000F06AF900F0B2F9000008000000000080
:1002880000000000000000004804002008060020CC
:10029800050600080F4B4FF080521A605A69002873
:1002A80082F4804282B05A6141F253710ADD0191B1
:1002B80000E000BF019B5A1E002B0192F9DC0138B7
:1002C8000028F4DC034B5A6982F480425A6102B078
:1002D800704700BF000C0240F0B4124F124D3B684B
:1002E8004FF0000C41F69F76002203EB431103EB1D
:1002F800810303F1510185FB0134CB17C3EB642360
:1003080006FB131383500432282AEED10CF1010C9A
:10031800BCF10A0F00F12800E6D13B600020F0BCD8
:10032800704700BF64040020C7143110014B00203F
:100338001860704764040020F0B4002739463D4631
:100348003C463E460023C2580433002AB9BFB618BB
:100358000135A4180131282BF5D101370A2F00F1F6
:100368002800EFD1044F0548054A064B3E6005605A
:1003780014601960F0BC704768040020040600206F
:10038800FC0500200006002010B50446FFF7A4FF76
:100398002046FFF7D1FF002010BD00BF094A0A48D8
:1003A800136803EB431103EB8103513380FB031004
:1003B800D917C1EB602041F69F7101FB1030106026
:1003C800704700BF64040020C7143110394A3A4B03
:1003D800D2F88810394841F47001C2F888101968B9
:1003E800002241F0010119609A60196821F08471B6
:1003F80021F4803119605860196882B021F4802195
:100408001960DA60009201921A6842F480321A6028
:100418001A4603E0009BB3F5A06F09D0136803F4F4
:1004280000330193009B01330093019B002BF1D013
:10043800214B1B6813F4003318BF01230193019B60
:10044800012B05D01B4B4FF000629A6002B0704739
:10045800194B1B4A186C1B4940F0805018641068EF
:1004680040F4804010609A689A609A6842F40042AA
:100478009A609A6842F4A0529A6059601A6842F0E9
:1004880080721A6019460B680B4A9B01FBD50E4B0C
:1004980040F205611960936823F003039360936841
:1004A80043F002039360936803F00C03082BFAD11E
:1004B800C8E700BF00ED00E000380240103000241B
:1004C8000070004019544007003C0240154B9A68E0
:1004D80002F00C02042A23D0082A09D0124A114932
:1004E800124B8968C1F30311595CCA401A617047FD
:1004F800586859685B6842024CBF0D4A0A4A01F0C5
:100508003F01C3F38813B2FBF1F202FB03F2054B80
:100518005B68C3F3014301335B00B2FBF3F2DEE730
:10052800034ADCE7003802400024F40004000020FD
:1005380040787D01FC0800080000002044040020E9
:10054800480400200806002008B50B4B0B4D1A6B19
:1005580042F008021A636420FFF79CFE0024084852
:100568002C60FFF7B9FE0648FFF7E6FE4FF47A70F5
:10057800FFF790FEF3E700BF003802406404002054
:100588006C040020002103E00B4B5B5843500431FE
:100598000A480B4B42189A42F6D30A4A02E0002353
:1005A80042F8043B084B9A42F9D3FFF70FFF00F0DB
:1005B8003DF8FFF7C9FF7047FC080008000000205D
:1005C800440400204804002008060020FEE700003C
:1005D800014600200246034600F09AB808B50021FB
:1005E800044600F0F3F8044B1868C36B03B198474E
:1005F800204600F075F900BFC808000838B5094D55
:10060800094C641BA41018BF05EB840505D0013CF8
:1006180055F8043D9847002CF9D1BDE8384000F062
:1006280059B900BFF8080008FC08000870B50F4E5B
:100638000F4D761BB61007D0043D0024013455F841
:10064800043F9847A642F9D10A4E0B4D761B00F09D
:100658003BF9B61008D0043D0024013455F8043F96
:100668009847A642F9D170BD70BD00BFF0080008D8
:10067800F0080008F8080008F0080008F0B484073B
:1006880043D0541E002A3ED0CDB2034603E0621E7A
:10069800002C38D0144603F8015B9A07F7D1032CD5
:1006A8002AD9CDB245EA05250F2C45EA054515D9C5
:1006B800A4F110073F0903F1100606EB07161A46C6
:1006C800156055609560D5601032B242F8D104F0DB
:1006D8000F040137032C03EB07130DD91E462246DE
:1006E800043A032A46F8045BFAD8221F22F00302D0
:1006F8000432134404F003042CB1C9B21C4403F8B7
:10070800011BA342FBD1F0BC704714460346C6E761
:10071800F0B5274C2668D6F8484185B00746002C26
:1007280041D065681F2D1EDD224818B94FF0FF30F3
:1007380005B0F0BD4FF4C870039102920193AFF376
:1007480000800399029A019B04460028EED0D6F84F
:1007580048512560002060600546C6F84841C4F845
:100768008801C4F88C013FB9AB1C002001356560D5
:1007780044F8231005B0F0BD04EB85004FF0010CE0
:10078800C0F88820D4F888610CFA05F21643022FC5
:10079800C4F88861C0F80831E6D1D4F88C311A431E
:1007A800C4F88C21E0E706F5A674C6F84841B8E716
:1007B800C808000800000000024B13B10248FFF708
:1007C80007BF704700000000050600082DE9F04F3C
:1007D800384B1B6885B003F5A472019302900F464D
:1007E8000392019BD3F84881B8F1000F1CD0DDF8C3
:1007F8000CB04FF00109DA46D8F804305C1E11D469
:1008080008F188059E1C05EB830508EB860677B181
:10081800EB6FBB420BD0013C631CA5F10405A6F1AC
:100828000406F4D1244A7ABB05B0BDE8F08FD8F8A5
:10083800042056F8043C013AA24216BF0022C8F828
:10084800044046F8042C002BE5D0D8F88811D8F8D5
:1008580004B009FA04F20A4210D0D8F88C110A42FE
:100868000ED1029855F8041C9847D8F804305B4517
:10087800B7D1DAF800304345CDD0B2E79847F4E76E
:1008880055F8040C9847F0E7D8F804306BB9D8F855
:10089800003063B14046CAF80030AFF30080DAF8A0
:1008A8000080B8F1000FA7D1BEE7D8F80030C246E3
:1008B8009846F6E7C808000800000000430000005A
:1008C8001800002000000000F8B500BFF8BC08BC04
:1008D8009E467047F8B500BFF8BC08BC9E467047F6
:0808E8004CF9FF7F0100000044
:0808F000C10700080102000825
:0408F800D90100081A
:1008FC0000000000000000000000000001020304E2
:10090C0006070809007A030A00000000040300200F
:10091C006C030020D4030020000000000000000045
:10092C0000000000000000000000000000000000BB
:10093C00000000000000000000000000C4080008D7
:10094C00000000000000000000000000000000009B
:10095C00000000000000000000000000000000008B
:10096C00000000000000000000000000000000007B
:10097C00000000000000000000000000000000006B
:10098C00000000000000000000000000000000005B
:10099C00000000000000000000000000000000004B
:1009AC00000000000000000000000000000000003B
:1009BC0001000000000000000E33CDAB34126DE6D8
:1009CC00ECDE05000B000000000000000000000041
:1009DC00000000000000000000000000000000000B
:1009EC0000000000000000000000000000000000FB
:1009FC0000000000000000000000000000000000EB
:100A0C0000000000000000000000000000000000DA
:040D3C00180000207B
:040D400000000000AF
:040000050800058D5D
:00000001FF
