:020000040800F2
:10000000000002204107000889070008890700084E
:100010008907000889070008890700080000000018
:100020000000000000000000000000008907000838
:1000300089070008000000008907000889070008F8
:100040008907000889070008890700088907000850
:100050008907000889070008890700088907000840
:100060008907000889070008890700088907000830
:100070008907000889070008890700088907000820
:100080008907000889070008890700088907000810
:100090008907000889070008890700088907000800
:1000A00089070008890700088907000889070008F0
:1000B00089070008890700088907000889070008E0
:1000C00089070008890700088907000889070008D0
:1000D00089070008890700088907000889070008C0
:1000E00089070008890700088907000889070008B0
:1000F00089070008890700088907000889070008A0
:10010000890700088907000889070008890700088F
:10011000890700088907000889070008890700087F
:10012000890700088907000889070008890700086F
:10013000890700088907000889070008890700085F
:10014000890700088907000889070008890700084F
:10015000890700088907000889070008890700083F
:10016000890700088907000889070008890700082F
:10017000890700088907000889070008890700081F
:08018000890700088907000847
:1001880008B50548054B1B1A062B00D808BD044BBB
:10019800002BFBD09847F9E7C8040020CB040020C7
:1001A8000000000008B50748074B1B1A9B1003EB1B
:1001B800D373591000D108BD044A002AFBD09047D8
:1001C800F9E700BFC8040020C804002000000000B0
:1001D80010B5064C237843B9FFF7D2FF044B13B18F
:1001E8000448AFF300800123237010BDC804002029
:1001F80000000000800A000808B5074B1BB107483B
:100208000749AFF300800748036813B1064B03B1F1
:100218009847BDE80840C5E700000000800A0008CC
:10022800CC040020C404002000000000134B002B65
:1002380008BF114B9D46A3F5803A00218B460F4617
:100248001148124A121A00F0F3FA0D4B002B00D095
:1002580098470C4B002B00D0984700200021040041
:100268000D000B4800F08EFA00F0BAFA20002900C1
:1002780000F04CFA00F08CFA0000080000000000C2
:100288000000000000000000C8040020E80400206E
:10029800B90700080F4B4FF080521A605A690028BE
:1002A80082F4804282B05A6141F253710ADD0191B1
:1002B80000E000BF019B5A1E002B0192F9DC0138B7
:1002C8000028F4DC034B5A6982F480425A6102B078
:1002D800704700BF000C02402DE9F00F8AB006906D
:1002E80007914800069B059008210391B3F900A0E7
:1002F800B3F90E90B3F90470B3F90C50B3F90A606E
:10030800B3F902C0B3F90840B3F90680C9EB0A0291
:100318000292C5EB0C01BA1BD144BE19029FCDF85D
:100328002490C4EB0800AC44DFF85892DDF808B01C
:10033800089655180495074409FB07F59344A0440B
:10034800DDF810908D4F441804EB0B0A42F2A156C9
:1003580006FB0AFA07FB09F6099FDFF82C92C8EB9F
:1003680007070497864F09FB04A407FB0BAA099FFC
:10037800B844089F40F68E1909FB0050C7EB0C09DA
:10038800674446F2542C0CFB016144F2B31C0CFB8D
:100398000262DDF808C0049E43F20B0B0BFB0C5BFA
:1003A8004E4441F25115DDF810C005FB06F6214414
:1003B80041F67E052044C91205FB0C64DFF8CCC168
:1003C800D980C0120399D88108EB07055244D34459
:1003D8000CFB0966C7EB08070598D2124FEAEB2B0E
:1003E800E412F612AD00BF0001395A81A3F802B039
:1003F8009C809E811D801F81039103447FF476AF0A
:10040800079A069F079B069EDDF81490DDF8188072
:10041800DDF818C091001046D400084407EB4000EE
:10042800A51A059A079006981A4406EB45050CEBA1
:10043800820C26440F44C84400EB4202039B0296F8
:1004480003950897CDF81480CDF810C00992069A44
:10045800039C32F903900599049AE05E31F903C0D0
:10046800099DD15E029E089C079AF75E35F90380C4
:10047800E65ED55EC7EB0804C0EB0902B8448144C8
:10048800C1EB0C008C44711B3544C5EB0C0AC8EB5E
:10049800090B27188E18C844AC440AEB0B0941F223
:1004A8005115CDF8008005FB09F907EB060842F263
:1004B800A15505FB08F5DFF8D08008FB0757DFF8E2
:1004C800C08008FB06562F4D0196A61805FB06F6B8
:1004D80040F68E1808FB0464DFF8B08041F67E050C
:1004E80005FB0B9B08FB0A99009DDDF800A0E24480
:1004F800CCEB050C214D01EB000805FB08F8069D27
:100508004FEA6A1A25F803A046F2542A0AFB00802B
:100518003C44074444F2B31000FB018143F20B0052
:1005280000FB0262DDF80880019E0498039D4FEAF3
:100538006C1C28F803C031443244DDF820C0079E03
:10054800DDF824804FEAA9494FEAAB4BA414BF1445
:1005580089142CF803B020F80390EC52F15228F8D3
:100568000370DDF81490921429F803200233102B3D
:100578007FF46DAF0AB0BDE8F00F7047FDADFFFF27
:1005880084F3FFFF33E3FFFF3BC1FFFFDFC4FFFF3F
:10059800394A3A4BD2F88810394841F47001C2F808
:1005A80088101968002241F0010119609A601968E1
:1005B80021F0847121F4803119605860196882B083
:1005C80021F480211960DA60009201921A6842F4DD
:1005D80080321A601A4603E0009BB3F5A06F09D079
:1005E800136803F400330193009B01330093019BCC
:1005F800002BF1D0214B1B6813F4003318BF0123E3
:100608000193019B012B05D01B4B4FF000629A60B0
:1006180002B07047194B1B4A186C1B4940F08050B8
:100628001864106840F4804010609A689A609A686C
:1006380042F400429A609A6842F4A0529A60596063
:100648001A6842F080721A6019460B680B4A9B01BF
:10065800FBD50E4B40F205611960936823F0030344
:100668009360936843F002039360936803F00C036C
:10067800082BFAD1C8E700BF00ED00E000380240BF
:10068800103000240070004019544007003C02401C
:10069800154B9A6802F00C02042A23D0082A09D0C4
:1006A800124A1149124B8968C1F30311595CCA40B7
:1006B8001A617047586859685B6842024CBF0D4A16
:1006C8000A4A01F03F01C3F38813B2FBF1F202FBBF
:1006D80003F2054B5B68C3F3014301335B00B2FBD4
:1006E800F3F2DEE7034ADCE7003802400024F400B6
:1006F8008400002040787D01B00A00080000002036
:10070800C4040020C8040020E804002008B5084BF1
:100718001A6B42F008021A636420FFF7BBFD054814
:100728000821FFF7D9FD4FF47A70FFF7B3FDF6E71C
:100738000038024004000020002103E00B4B5B5806
:10074800435004310A480B4B42189A42F6D30A4ADE
:1007580002E0002342F8043B084B9A42F9D3FFF722
:1007680017FF00F03DF8FFF7D1FF7047B00A000807
:1007780000000020C4040020C8040020E804002071
:10078800FEE70000014600200246034600F09AB842
:1007980008B50021044600F0F3F8044B1868C36B51
:1007A80003B19847204600F075F900BF7C0A00089D
:1007B80038B5094D094C641BA41018BF05EB840516
:1007C80005D0013C55F8043D9847002CF9D1BDE807
:1007D800384000F059B900BFAC0A0008B00A000858
:1007E80070B50F4E0F4D761BB61007D0043D002490
:1007F800013455F8043F9847A642F9D10A4E0B4DEB
:10080800761B00F03BF9B61008D0043D00240134F3
:1008180055F8043F9847A642F9D170BD70BD00BF96
:10082800A40A0008A40A0008AC0A0008A40A0008E0
:10083800F0B4840743D0541E002A3ED0CDB20346FC
:1008480003E0621E002C38D0144603F8015B9A07B7
:10085800F7D1032C2AD9CDB245EA05250F2C45EA54
:10086800054515D9A4F110073F0903F1100606EB59
:1008780007161A46156055609560D5601032B24269
:10088800F8D104F00F040137032C03EB07130DD93B
:100898001E462246043A032A46F8045BFAD8221F69
:1008A80022F003020432134404F003042CB1C9B249
:1008B8001C4403F8011BA342FBD1F0BC704714464B
:1008C8000346C6E7F0B5274C2668D6F8484185B0F8
:1008D8000746002C41D065681F2D1EDD224818B937
:1008E8004FF0FF3005B0F0BD4FF4C870039102928D
:1008F8000193AFF300800399029A019B04460028F4
:10090800EED0D6F848512560002060600546C6F84C
:100918004841C4F88801C4F88C013FB9AB1C0020D9
:100928000135656044F8231005B0F0BD04EB85007F
:100938004FF0010CC0F88820D4F888610CFA05F251
:100948001643022FC4F88861C0F80831E6D1D4F8FC
:100958008C311A43C4F88C21E0E706F5A674C6F872
:100968004841B8E77C0A000800000000024B13B1B8
:100978000248FFF707BF704700000000B9070008EA
:100988002DE9F04F384B1B6885B003F5A47201932D
:1009980002900F460392019BD3F84881B8F1000FEB
:1009A8001CD0DDF80CB04FF00109DA46D8F8043055
:1009B8005C1E11D408F188059E1C05EB830508EB25
:1009C800860677B1EB6FBB420BD0013C631CA5F1E7
:1009D8000405A6F10406F4D1244A7ABB05B0BDE8A3
:1009E800F08FD8F8042056F8043C013AA24216BF0A
:1009F8000022C8F8044046F8042C002BE5D0D8F8AB
:100A08008811D8F804B009FA04F20A4210D0D8F8CC
:100A18008C110A420ED1029855F8041C9847D8F850
:100A280004305B45B7D1DAF800304345CDD0B2E7A2
:100A38009847F4E755F8040C9847F0E7D8F80430DD
:100A48006BB9D8F8003063B14046CAF80030AFF34C
:100A58000080DAF80080B8F1000FA7D1BEE7D8F817
:100A68000030C2469846F6E77C0A000800000000FD
:100A7800430000009800002000000000F8B500BF07
:100A8800F8BC08BC9E467047F8B500BFF8BC08BC67
:040A98009E467047BF
:080A9C0098F7FF7F0100000044
:080AA4007509000801020008B9
:040AAC00D901000864
:100AB00000000000630068006D00710073007300A7
:100AC0003700370068006F0071007400770038004D
:100AD000380038006E007300780077007600380028
:100AE00038003800770079007A00780078003B0001
:100AF0003B003B007700780079007A007A003700ED
:100B00003700370079007900790079003C0039001E
:100B1000390039007A007A003D003F003E0039007C
:100B2000390039003E003E003D003D003F003A00E4
:100B30003A003A0000000000000000000102030437
:100B400006070809007A030A000000008403002059
:100B5000EC0300205404002000000000000000000E
:100B60000000000000000000000000000000000085
:100B7000000000000000000000000000780A0008EB
:100B80000000000000000000000000000000000065
:100B90000000000000000000000000000000000055
:100BA0000000000000000000000000000000000045
:100BB0000000000000000000000000000000000035
:100BC0000000000000000000000000000000000025
:100BD0000000000000000000000000000000000015
:100BE0000000000000000000000000000000000005
:100BF00001000000000000000E33CDAB34126DE6A2
:100C0000ECDE05000B00000000000000000000000A
:100C100000000000000000000000000000000000D4
:100C200000000000000000000000000000000000C4
:100C300000000000000000000000000000000000B4
:100C400000000000000000000000000000000000A4
:040F700098000020C5
:040F74000000000079
:0400000508000741A7
:00000001FF
